{
  "address": "0x6BcdF3890F61A9Ca63559C3Bf4133044d86fF474",
  "abi": [
    {
      "anonymous": false,
      "inputs": [
        {
          "indexed": true,
          "internalType": "bytes32",
          "name": "transactionId",
          "type": "bytes32"
        },
        {
          "indexed": false,
          "internalType": "address",
          "name": "receivingAssetId",
          "type": "address"
        },
        {
          "indexed": false,
          "internalType": "address",
          "name": "receiver",
          "type": "address"
        },
        {
          "indexed": false,
          "internalType": "uint256",
          "name": "amount",
          "type": "uint256"
        },
        {
          "indexed": false,
          "internalType": "uint256",
          "name": "timestamp",
          "type": "uint256"
        }
      ],
      "name": "LiFiTransferCompleted",
      "type": "event"
    },
    {
      "anonymous": false,
      "inputs": [
        {
          "indexed": true,
          "internalType": "bytes32",
          "name": "transactionId",
          "type": "bytes32"
        },
        {
          "indexed": false,
          "internalType": "string",
          "name": "integrator",
          "type": "string"
        },
        {
          "indexed": false,
          "internalType": "address",
          "name": "referrer",
          "type": "address"
        },
        {
          "indexed": false,
          "internalType": "address",
          "name": "sendingAssetId",
          "type": "address"
        },
        {
          "indexed": false,
          "internalType": "address",
          "name": "receivingAssetId",
          "type": "address"
        },
        {
          "indexed": false,
          "internalType": "address",
          "name": "receiver",
          "type": "address"
        },
        {
          "indexed": false,
          "internalType": "uint256",
          "name": "amount",
          "type": "uint256"
        },
        {
          "indexed": false,
          "internalType": "uint256",
          "name": "destinationChainId",
          "type": "uint256"
        },
        {
          "indexed": false,
          "internalType": "uint256",
          "name": "timestamp",
          "type": "uint256"
        }
      ],
      "name": "LiFiTransferConfirmed",
      "type": "event"
    },
    {
      "anonymous": false,
      "inputs": [
        {
          "indexed": true,
          "internalType": "bytes32",
          "name": "transactionId",
          "type": "bytes32"
        },
        {
          "indexed": false,
          "internalType": "string",
          "name": "integrator",
          "type": "string"
        },
        {
          "indexed": false,
          "internalType": "address",
          "name": "referrer",
          "type": "address"
        },
        {
          "indexed": false,
          "internalType": "address",
          "name": "sendingAssetId",
          "type": "address"
        },
        {
          "indexed": false,
          "internalType": "address",
          "name": "receivingAssetId",
          "type": "address"
        },
        {
          "indexed": false,
          "internalType": "address",
          "name": "receiver",
          "type": "address"
        },
        {
          "indexed": false,
          "internalType": "uint256",
          "name": "amount",
          "type": "uint256"
        },
        {
          "indexed": false,
          "internalType": "uint256",
          "name": "destinationChainId",
          "type": "uint256"
        },
        {
          "indexed": false,
          "internalType": "uint256",
          "name": "timestamp",
          "type": "uint256"
        }
      ],
      "name": "LiFiTransferRefunded",
      "type": "event"
    },
    {
      "anonymous": false,
      "inputs": [
        {
          "indexed": true,
          "internalType": "bytes32",
          "name": "transactionId",
          "type": "bytes32"
        },
        {
          "indexed": false,
          "internalType": "string",
          "name": "integrator",
          "type": "string"
        },
        {
          "indexed": false,
          "internalType": "address",
          "name": "referrer",
          "type": "address"
        },
        {
          "indexed": false,
          "internalType": "address",
          "name": "sendingAssetId",
          "type": "address"
        },
        {
          "indexed": false,
          "internalType": "address",
          "name": "receivingAssetId",
          "type": "address"
        },
        {
          "indexed": false,
          "internalType": "address",
          "name": "receiver",
          "type": "address"
        },
        {
          "indexed": false,
          "internalType": "uint256",
          "name": "amount",
          "type": "uint256"
        },
        {
          "indexed": false,
          "internalType": "uint256",
          "name": "destinationChainId",
          "type": "uint256"
        },
        {
          "indexed": false,
          "internalType": "uint256",
          "name": "timestamp",
          "type": "uint256"
        }
      ],
      "name": "LiFiTransferStarted",
      "type": "event"
    },
    {
      "inputs": [
        {
          "internalType": "string[]",
          "name": "_tokens",
          "type": "string[]"
        },
        {
          "components": [
            {
              "internalType": "address",
              "name": "token",
              "type": "address"
            },
            {
              "internalType": "address",
              "name": "bridge",
              "type": "address"
            },
            {
              "internalType": "address",
              "name": "ammWrapper",
              "type": "address"
            }
          ],
          "internalType": "struct IHopBridge.BridgeConfig[]",
          "name": "_bridgeConfigs",
          "type": "tuple[]"
        },
        {
          "internalType": "uint256",
          "name": "_chainId",
          "type": "uint256"
        }
      ],
      "name": "initHop",
      "outputs": [],
      "stateMutability": "nonpayable",
      "type": "function"
    },
    {
      "inputs": [
        {
          "components": [
            {
              "internalType": "bytes32",
              "name": "transactionId",
              "type": "bytes32"
            },
            {
              "internalType": "string",
              "name": "integrator",
              "type": "string"
            },
            {
              "internalType": "address",
              "name": "referrer",
              "type": "address"
            },
            {
              "internalType": "address",
              "name": "sendingAssetId",
              "type": "address"
            },
            {
              "internalType": "address",
              "name": "receivingAssetId",
              "type": "address"
            },
            {
              "internalType": "address",
              "name": "receiver",
              "type": "address"
            },
            {
              "internalType": "uint256",
              "name": "destinationChainId",
              "type": "uint256"
            },
            {
              "internalType": "uint256",
              "name": "amount",
              "type": "uint256"
            }
          ],
          "internalType": "struct ILiFi.LiFiData",
          "name": "_lifiData",
          "type": "tuple"
        },
        {
          "components": [
            {
              "internalType": "string",
              "name": "asset",
              "type": "string"
            },
            {
              "internalType": "address",
              "name": "recipient",
              "type": "address"
            },
            {
              "internalType": "uint256",
              "name": "chainId",
              "type": "uint256"
            },
            {
              "internalType": "uint256",
              "name": "amount",
              "type": "uint256"
            },
            {
              "internalType": "uint256",
              "name": "bonderFee",
              "type": "uint256"
            },
            {
              "internalType": "uint256",
              "name": "amountOutMin",
              "type": "uint256"
            },
            {
              "internalType": "uint256",
              "name": "deadline",
              "type": "uint256"
            },
            {
              "internalType": "uint256",
              "name": "destinationAmountOutMin",
              "type": "uint256"
            },
            {
              "internalType": "uint256",
              "name": "destinationDeadline",
              "type": "uint256"
            }
          ],
          "internalType": "struct HopFacet.HopData",
          "name": "_hopData",
          "type": "tuple"
        }
      ],
      "name": "startBridgeTokensViaHop",
      "outputs": [],
      "stateMutability": "payable",
      "type": "function"
    },
    {
      "inputs": [
        {
          "components": [
            {
              "internalType": "bytes32",
              "name": "transactionId",
              "type": "bytes32"
            },
            {
              "internalType": "string",
              "name": "integrator",
              "type": "string"
            },
            {
              "internalType": "address",
              "name": "referrer",
              "type": "address"
            },
            {
              "internalType": "address",
              "name": "sendingAssetId",
              "type": "address"
            },
            {
              "internalType": "address",
              "name": "receivingAssetId",
              "type": "address"
            },
            {
              "internalType": "address",
              "name": "receiver",
              "type": "address"
            },
            {
              "internalType": "uint256",
              "name": "destinationChainId",
              "type": "uint256"
            },
            {
              "internalType": "uint256",
              "name": "amount",
              "type": "uint256"
            }
          ],
          "internalType": "struct ILiFi.LiFiData",
          "name": "_lifiData",
          "type": "tuple"
        },
        {
          "components": [
            {
              "internalType": "address",
              "name": "callTo",
              "type": "address"
            },
            {
              "internalType": "address",
              "name": "approveTo",
              "type": "address"
            },
            {
              "internalType": "address",
              "name": "sendingAssetId",
              "type": "address"
            },
            {
              "internalType": "address",
              "name": "receivingAssetId",
              "type": "address"
            },
            {
              "internalType": "uint256",
              "name": "fromAmount",
              "type": "uint256"
            },
            {
              "internalType": "bytes",
              "name": "callData",
              "type": "bytes"
            }
          ],
          "internalType": "struct LibSwap.SwapData[]",
          "name": "_swapData",
          "type": "tuple[]"
        },
        {
          "components": [
            {
              "internalType": "string",
              "name": "asset",
              "type": "string"
            },
            {
              "internalType": "address",
              "name": "recipient",
              "type": "address"
            },
            {
              "internalType": "uint256",
              "name": "chainId",
              "type": "uint256"
            },
            {
              "internalType": "uint256",
              "name": "amount",
              "type": "uint256"
            },
            {
              "internalType": "uint256",
              "name": "bonderFee",
              "type": "uint256"
            },
            {
              "internalType": "uint256",
              "name": "amountOutMin",
              "type": "uint256"
            },
            {
              "internalType": "uint256",
              "name": "deadline",
              "type": "uint256"
            },
            {
              "internalType": "uint256",
              "name": "destinationAmountOutMin",
              "type": "uint256"
            },
            {
              "internalType": "uint256",
              "name": "destinationDeadline",
              "type": "uint256"
            }
          ],
          "internalType": "struct HopFacet.HopData",
          "name": "_hopData",
          "type": "tuple"
        }
      ],
      "name": "swapAndStartBridgeTokensViaHop",
      "outputs": [],
      "stateMutability": "payable",
      "type": "function"
    }
  ],
  "transactionHash": "0x4bac7c4aa7d4ccc05dba8d2bdb3bec035289c6cc6c29293546c541790f1944fa",
  "args": [],
  "solcInputHash": "66ff470e5813ad3eb1e264cd2297947a",
  "bytecode": "0x608060405234801561001057600080fd5b50611894806100206000396000f3fe6080604052600436106100345760003560e01c80632722a4a814610039578063327a564d1461004e578063d1026c9c14610061575b600080fd5b61004c610047366004611474565b610081565b005b61004c61005c366004611533565b610205565b34801561006d57600080fd5b5061004c61007c3660046112f8565b610304565b60006100ca6100908380611673565b8080601f0160208091040260200160405190810160405280939291908181526020018383808284376000920191909152506103fd92505050565b51905060006100d88261048d565b905060005b60ff811685111561012c57865161011a90878760ff851681811061010357610103611832565b905060200281019061011591906116c1565b610522565b80610124816117fc565b9150506100dd565b5082606001358161013c8461048d565b61014691906117b9565b101561018e5760405162461bcd60e51b815260206004820152601260248201527111549497d253959053125117d05353d5539560721b60448201526064015b60405180910390fd5b61019783610716565b85600001517f3b254a352757de129783dc1fcdea65d20e49fc091f974551e1dcb4afbf1fdc468760200151886040015189606001518a608001518b60a001518c60e001518d60c00151426040516101f598979695949392919061161b565b60405180910390a2505050505050565b60006102146100908380611673565b51905060006102228261048d565b90506102348233308660600135610985565b8260600135816102438461048d565b61024d91906117b9565b1461028f5760405162461bcd60e51b815260206004820152601260248201527111549497d253959053125117d05353d5539560721b6044820152606401610185565b61029883610716565b83600001517f3b254a352757de129783dc1fcdea65d20e49fc091f974551e1dcb4afbf1fdc4685602001518660400151876060015188608001518960a001518a60e001518b60c00151426040516102f698979695949392919061161b565b60405180910390a250505050565b7f6d21be7f069eba22e6227bbf0972cf4a3ee2f0ce81ad8bd8004228e83b4830b861032d610991565b60005b84518160ff1610156103f457838160ff168151811061035157610351611832565b602002602001015182600001868360ff168151811061037257610372611832565b602002602001015160405161038791906115ec565b9081526040805160209281900383019020835181546001600160a01b03199081166001600160a01b039283161783559385015160018301805486169183169190911790559390910151600290910180549092169216919091179055806103ec816117fc565b915050610330565b50600101555050565b604080516060810182526000808252602082018190528183015290517f6d21be7f069eba22e6227bbf0972cf4a3ee2f0ce81ad8bd8004228e83b4830b89081906104489085906115ec565b90815260408051918290036020908101832060608401835280546001600160a01b03908116855260018201548116928501929092526002015416908201529392505050565b60006001600160a01b0382161561051a576040516370a0823160e01b81523060048201526001600160a01b038316906370a082319060240160206040518083038186803b1580156104dd57600080fd5b505afa1580156104f1573d6000803e3d6000fd5b505050506040513d601f19601f820116820180604052508101906105159190611597565b61051c565b475b92915050565b608081018035906000906105429061053d90606086016112dd565b61048d565b9050600061055660608501604086016112dd565b90506001600160a01b038116151580156105785750826105758261048d565b14155b156105b25761059861059060608601604087016112dd565b333086610985565b6105b2816105ac60408701602088016112dd565b85610a1a565b6000806105c260208701876112dd565b6001600160a01b0316346105d960a0890189611673565b6040516105e79291906115dc565b60006040518083038185875af1925050503d8060008114610624576040519150601f19603f3d011682016040523d82523d6000602084013e610629565b606091505b50915091508161065a57600061063e82610acf565b90508060405162461bcd60e51b81526004016101859190611608565b8361066e61053d6080890160608a016112dd565b61067891906117b9565b93507f7bfdfdb5e3a3776976e53cb0607060f54c5312701c8cba1155cc4d5394440b38876106a960208901896112dd565b6106b960608a0160408b016112dd565b6106c960808b0160608c016112dd565b604080519485526001600160a01b0393841660208601529183168483015290911660608301526080820188905260a082018790524260c0830152519081900360e00190a150505050505050565b7f6d21be7f069eba22e6227bbf0972cf4a3ee2f0ce81ad8bd8004228e83b4830b860006107466100908480611673565b6000015190506000826001015460011415610773576107686100908580611673565b602001519050610787565b6107806100908580611673565b6040015190505b8360400135836001015414156107ea5760405162461bcd60e51b815260206004820152602260248201527f43616e6e6f742062726964676520746f207468652073616d65206e6574776f72604482015261359760f11b6064820152608401610185565b6107f982828660600135610a1a565b8260010154600114156108bc576001600160a01b03811663deace8f56040860180359061082990602089016112dd565b60405160e084811b6001600160e01b031916825260048201939093526001600160a01b03919091166024820152606088013560448201529087013560648201526101008701356084820152600060a4820181905260c482015260e401600060405180830381600087803b15801561089f57600080fd5b505af11580156108b3573d6000803e3d6000fd5b5050505061097f565b6001600160a01b03811663eea0d7b2604086018035906108df90602089016112dd565b60405160e084811b6001600160e01b031916825260048201939093526001600160a01b03919091166024820152606088013560448201526080880135606482015260a0880135608482015260c088013560a48201529087013560c482015261010087013560e482015261010401600060405180830381600087803b15801561096657600080fd5b505af115801561097a573d6000803e3d6000fd5b505050505b50505050565b61097f84848484610b4d565b7fc8fcad8db84d3cc18b4c41d551ea0ee66dd599cde068d998e57d5e09332c131c600401546001600160a01b03163314610a185760405162461bcd60e51b815260206004820152602260248201527f4c69624469616d6f6e643a204d75737420626520636f6e7472616374206f776e60448201526132b960f11b6064820152608401610185565b565b6001600160a01b038316610a2d57505050565b604051636eb1769f60e11b81523060048201526001600160a01b0383811660248301526000919085169063dd62ed3e9060440160206040518083038186803b158015610a7857600080fd5b505afa158015610a8c573d6000803e3d6000fd5b505050506040513d601f19601f82011682018060405250810190610ab09190611597565b90508015610ac457610ac484846000610bb8565b61097f848484610ce1565b6060604482511015610b1457505060408051808201909152601d81527f5472616e73616374696f6e2072657665727465642073696c656e746c79000000602082015290565b6000610b306004808551610b2891906117b9565b859190610da2565b905080806020019051810190610b4691906113fd565b9392505050565b6040516001600160a01b038085166024830152831660448201526064810182905261097f9085906323b872dd60e01b906084015b60408051601f198184030181529190526020810180516001600160e01b03166001600160e01b031990931692909217909152610eaf565b801580610c415750604051636eb1769f60e11b81523060048201526001600160a01b03838116602483015284169063dd62ed3e9060440160206040518083038186803b158015610c0757600080fd5b505afa158015610c1b573d6000803e3d6000fd5b505050506040513d601f19601f82011682018060405250810190610c3f9190611597565b155b610cac5760405162461bcd60e51b815260206004820152603660248201527f5361666545524332303a20617070726f76652066726f6d206e6f6e2d7a65726f60448201527520746f206e6f6e2d7a65726f20616c6c6f77616e636560501b6064820152608401610185565b6040516001600160a01b038316602482015260448101829052610cdc90849063095ea7b360e01b90606401610b81565b505050565b604051636eb1769f60e11b81523060048201526001600160a01b038381166024830152600091839186169063dd62ed3e9060440160206040518083038186803b158015610d2d57600080fd5b505afa158015610d41573d6000803e3d6000fd5b505050506040513d601f19601f82011682018060405250810190610d659190611597565b610d6f91906117a1565b6040516001600160a01b03851660248201526044810182905290915061097f90859063095ea7b360e01b90606401610b81565b606081610db081601f6117a1565b1015610def5760405162461bcd60e51b815260206004820152600e60248201526d736c6963655f6f766572666c6f7760901b6044820152606401610185565b610df982846117a1565b84511015610e3d5760405162461bcd60e51b8152602060048201526011602482015270736c6963655f6f75744f66426f756e647360781b6044820152606401610185565b606082158015610e5c5760405191506000825260208201604052610ea6565b6040519150601f8416801560200281840101858101878315602002848b0101015b81831015610e95578051835260209283019201610e7d565b5050858452601f01601f1916604052505b50949350505050565b6000610f04826040518060400160405280602081526020017f5361666545524332303a206c6f772d6c6576656c2063616c6c206661696c6564815250856001600160a01b0316610f819092919063ffffffff16565b805190915015610cdc5780806020019051810190610f2291906113db565b610cdc5760405162461bcd60e51b815260206004820152602a60248201527f5361666545524332303a204552433230206f7065726174696f6e20646964206e6044820152691bdd081cdd58d8d9595960b21b6064820152608401610185565b6060610f908484600085610f98565b949350505050565b606082471015610ff95760405162461bcd60e51b815260206004820152602660248201527f416464726573733a20696e73756666696369656e742062616c616e636520666f6044820152651c8818d85b1b60d21b6064820152608401610185565b843b6110475760405162461bcd60e51b815260206004820152601d60248201527f416464726573733a2063616c6c20746f206e6f6e2d636f6e74726163740000006044820152606401610185565b600080866001600160a01b0316858760405161106391906115ec565b60006040518083038185875af1925050503d80600081146110a0576040519150601f19603f3d011682016040523d82523d6000602084013e6110a5565b606091505b50915091506110b58282866110c0565b979650505050505050565b606083156110cf575081610b46565b8251156110df5782518084602001fd5b8160405162461bcd60e51b81526004016101859190611608565b80356001600160a01b038116811461111057600080fd5b919050565b600082601f83011261112657600080fd5b8135602061113b61113683611755565b611724565b8281528181019085830160608086028801850189101561115a57600080fd5b6000805b878110156111b95782848c031215611174578182fd5b61117c6116d7565b611185856110f9565b81526111928886016110f9565b8882015260406111a38187016110f9565b908201528652948601949282019260010161115e565b50929998505050505050505050565b600082601f8301126111d957600080fd5b81356111e761113682611779565b8181528460208386010111156111fc57600080fd5b816020850160208301376000918101602001919091529392505050565b6000610120828403121561122c57600080fd5b50919050565b6000610100828403121561124557600080fd5b61124d611700565b905081358152602082013567ffffffffffffffff81111561126d57600080fd5b611279848285016111c8565b60208301525061128b604083016110f9565b604082015261129c606083016110f9565b60608201526112ad608083016110f9565b60808201526112be60a083016110f9565b60a082015260c082013560c082015260e082013560e082015292915050565b6000602082840312156112ef57600080fd5b610b46826110f9565b60008060006060848603121561130d57600080fd5b833567ffffffffffffffff8082111561132557600080fd5b818601915086601f83011261133957600080fd5b8135602061134961113683611755565b8083825282820191508286018b848660051b890101111561136957600080fd5b60005b858110156113a45781358781111561138357600080fd5b6113918e87838c01016111c8565b855250928401929084019060010161136c565b509098505050870135925050808211156113bd57600080fd5b506113ca86828701611115565b925050604084013590509250925092565b6000602082840312156113ed57600080fd5b81518015158114610b4657600080fd5b60006020828403121561140f57600080fd5b815167ffffffffffffffff81111561142657600080fd5b8201601f8101841361143757600080fd5b805161144561113682611779565b81815285602083850101111561145a57600080fd5b61146b8260208301602086016117d0565b95945050505050565b6000806000806060858703121561148a57600080fd5b843567ffffffffffffffff808211156114a257600080fd5b6114ae88838901611232565b955060208701359150808211156114c457600080fd5b818701915087601f8301126114d857600080fd5b8135818111156114e757600080fd5b8860208260051b85010111156114fc57600080fd5b60208301955080945050604087013591508082111561151a57600080fd5b5061152787828801611219565b91505092959194509250565b6000806040838503121561154657600080fd5b823567ffffffffffffffff8082111561155e57600080fd5b61156a86838701611232565b9350602085013591508082111561158057600080fd5b5061158d85828601611219565b9150509250929050565b6000602082840312156115a957600080fd5b5051919050565b600081518084526115c88160208601602086016117d0565b601f01601f19169290920160200192915050565b8183823760009101908152919050565b600082516115fe8184602087016117d0565b9190910192915050565b602081526000610b4660208301846115b0565b600061010080835261162f8184018c6115b0565b6001600160a01b039a8b166020850152988a1660408401525050948716606086015292909516608084015260a083015260c082019390935260e00191909152919050565b6000808335601e1984360301811261168a57600080fd5b83018035915067ffffffffffffffff8211156116a557600080fd5b6020019150368190038213156116ba57600080fd5b9250929050565b6000823560be198336030181126115fe57600080fd5b6040516060810167ffffffffffffffff811182821017156116fa576116fa611848565b60405290565b604051610100810167ffffffffffffffff811182821017156116fa576116fa611848565b604051601f8201601f1916810167ffffffffffffffff8111828210171561174d5761174d611848565b604052919050565b600067ffffffffffffffff82111561176f5761176f611848565b5060051b60200190565b600067ffffffffffffffff82111561179357611793611848565b50601f01601f191660200190565b600082198211156117b4576117b461181c565b500190565b6000828210156117cb576117cb61181c565b500390565b60005b838110156117eb5781810151838201526020016117d3565b8381111561097f5750506000910152565b600060ff821660ff8114156118135761181361181c565b60010192915050565b634e487b7160e01b600052601160045260246000fd5b634e487b7160e01b600052603260045260246000fd5b634e487b7160e01b600052604160045260246000fdfea264697066735822122091b9ce88a6264870ce275cca47b6ebfb5c5eb95c7b387879ec048013fc01873b64736f6c63430008070033",
  "devdoc": {
    "kind": "dev",
    "methods": {
      "startBridgeTokensViaHop((bytes32,string,address,address,address,address,uint256,uint256),(string,address,uint256,uint256,uint256,uint256,uint256,uint256,uint256))": {
        "params": {
          "_hopData": "data specific to Hop Protocol",
          "_lifiData": "data used purely for tracking and analytics"
        }
      },
      "swapAndStartBridgeTokensViaHop((bytes32,string,address,address,address,address,uint256,uint256),(address,address,address,address,uint256,bytes)[],(string,address,uint256,uint256,uint256,uint256,uint256,uint256,uint256))": {
        "params": {
          "_hopData": "data specific to Hop Protocol",
          "_lifiData": "data used purely for tracking and analytics",
          "_swapData": "an array of swap related data for performing swaps before bridging"
        }
      }
    },
    "version": 1
  },
  "userdoc": {
    "kind": "user",
    "methods": {
      "startBridgeTokensViaHop((bytes32,string,address,address,address,address,uint256,uint256),(string,address,uint256,uint256,uint256,uint256,uint256,uint256,uint256))": {
        "notice": "Bridges tokens via Hop Protocol"
      },
      "swapAndStartBridgeTokensViaHop((bytes32,string,address,address,address,address,uint256,uint256),(address,address,address,address,uint256,bytes)[],(string,address,uint256,uint256,uint256,uint256,uint256,uint256,uint256))": {
        "notice": "Performs a swap before bridging via Hop Protocol"
      }
    },
    "version": 1
  },
  "storageLayout": {
    "storage": [],
    "types": null
  }
}