{
  "address": "0x355D8EAB7Edb5abCf8867C78c903aA33C1021EB2",
  "abi": [
    {
      "anonymous": false,
      "inputs": [
        {
          "indexed": true,
          "internalType": "bytes32",
          "name": "transactionId",
          "type": "bytes32"
        },
        {
          "indexed": false,
          "internalType": "address",
          "name": "receivingAssetId",
          "type": "address"
        },
        {
          "indexed": false,
          "internalType": "address",
          "name": "receiver",
          "type": "address"
        },
        {
          "indexed": false,
          "internalType": "uint256",
          "name": "amount",
          "type": "uint256"
        },
        {
          "indexed": false,
          "internalType": "uint256",
          "name": "timestamp",
          "type": "uint256"
        }
      ],
      "name": "LiFiTransferCompleted",
      "type": "event"
    },
    {
      "anonymous": false,
      "inputs": [
        {
          "indexed": true,
          "internalType": "bytes32",
          "name": "transactionId",
          "type": "bytes32"
        },
        {
          "indexed": false,
          "internalType": "string",
          "name": "integrator",
          "type": "string"
        },
        {
          "indexed": false,
          "internalType": "address",
          "name": "referrer",
          "type": "address"
        },
        {
          "indexed": false,
          "internalType": "address",
          "name": "sendingAssetId",
          "type": "address"
        },
        {
          "indexed": false,
          "internalType": "address",
          "name": "receivingAssetId",
          "type": "address"
        },
        {
          "indexed": false,
          "internalType": "address",
          "name": "receiver",
          "type": "address"
        },
        {
          "indexed": false,
          "internalType": "uint256",
          "name": "amount",
          "type": "uint256"
        },
        {
          "indexed": false,
          "internalType": "uint256",
          "name": "destinationChainId",
          "type": "uint256"
        },
        {
          "indexed": false,
          "internalType": "uint256",
          "name": "timestamp",
          "type": "uint256"
        }
      ],
      "name": "LiFiTransferConfirmed",
      "type": "event"
    },
    {
      "anonymous": false,
      "inputs": [
        {
          "indexed": true,
          "internalType": "bytes32",
          "name": "transactionId",
          "type": "bytes32"
        },
        {
          "indexed": false,
          "internalType": "string",
          "name": "integrator",
          "type": "string"
        },
        {
          "indexed": false,
          "internalType": "address",
          "name": "referrer",
          "type": "address"
        },
        {
          "indexed": false,
          "internalType": "address",
          "name": "sendingAssetId",
          "type": "address"
        },
        {
          "indexed": false,
          "internalType": "address",
          "name": "receivingAssetId",
          "type": "address"
        },
        {
          "indexed": false,
          "internalType": "address",
          "name": "receiver",
          "type": "address"
        },
        {
          "indexed": false,
          "internalType": "uint256",
          "name": "amount",
          "type": "uint256"
        },
        {
          "indexed": false,
          "internalType": "uint256",
          "name": "destinationChainId",
          "type": "uint256"
        },
        {
          "indexed": false,
          "internalType": "uint256",
          "name": "timestamp",
          "type": "uint256"
        }
      ],
      "name": "LiFiTransferRefunded",
      "type": "event"
    },
    {
      "anonymous": false,
      "inputs": [
        {
          "indexed": true,
          "internalType": "bytes32",
          "name": "transactionId",
          "type": "bytes32"
        },
        {
          "indexed": false,
          "internalType": "string",
          "name": "integrator",
          "type": "string"
        },
        {
          "indexed": false,
          "internalType": "address",
          "name": "referrer",
          "type": "address"
        },
        {
          "indexed": false,
          "internalType": "address",
          "name": "sendingAssetId",
          "type": "address"
        },
        {
          "indexed": false,
          "internalType": "address",
          "name": "receivingAssetId",
          "type": "address"
        },
        {
          "indexed": false,
          "internalType": "address",
          "name": "receiver",
          "type": "address"
        },
        {
          "indexed": false,
          "internalType": "uint256",
          "name": "amount",
          "type": "uint256"
        },
        {
          "indexed": false,
          "internalType": "uint256",
          "name": "destinationChainId",
          "type": "uint256"
        },
        {
          "indexed": false,
          "internalType": "uint256",
          "name": "timestamp",
          "type": "uint256"
        }
      ],
      "name": "LiFiTransferStarted",
      "type": "event"
    },
    {
      "inputs": [
        {
          "internalType": "address",
          "name": "_newRouter",
          "type": "address"
        }
      ],
      "name": "changeAnyswapRouter",
      "outputs": [],
      "stateMutability": "nonpayable",
      "type": "function"
    },
    {
      "inputs": [
        {
          "internalType": "address",
          "name": "_anyswapRouter",
          "type": "address"
        }
      ],
      "name": "initAnyswap",
      "outputs": [],
      "stateMutability": "nonpayable",
      "type": "function"
    },
    {
      "inputs": [
        {
          "components": [
            {
              "internalType": "bytes32",
              "name": "transactionId",
              "type": "bytes32"
            },
            {
              "internalType": "string",
              "name": "integrator",
              "type": "string"
            },
            {
              "internalType": "address",
              "name": "referrer",
              "type": "address"
            },
            {
              "internalType": "address",
              "name": "sendingAssetId",
              "type": "address"
            },
            {
              "internalType": "address",
              "name": "receivingAssetId",
              "type": "address"
            },
            {
              "internalType": "address",
              "name": "receiver",
              "type": "address"
            },
            {
              "internalType": "uint256",
              "name": "destinationChainId",
              "type": "uint256"
            },
            {
              "internalType": "uint256",
              "name": "amount",
              "type": "uint256"
            }
          ],
          "internalType": "struct ILiFi.LiFiData",
          "name": "_lifiData",
          "type": "tuple"
        },
        {
          "components": [
            {
              "internalType": "address",
              "name": "token",
              "type": "address"
            },
            {
              "internalType": "uint256",
              "name": "amount",
              "type": "uint256"
            },
            {
              "internalType": "address",
              "name": "recipient",
              "type": "address"
            },
            {
              "internalType": "uint256",
              "name": "toChainId",
              "type": "uint256"
            }
          ],
          "internalType": "struct AnyswapFacet.AnyswapData",
          "name": "_anyswapData",
          "type": "tuple"
        }
      ],
      "name": "startBridgeTokensViaAnyswap",
      "outputs": [],
      "stateMutability": "payable",
      "type": "function"
    },
    {
      "inputs": [
        {
          "components": [
            {
              "internalType": "bytes32",
              "name": "transactionId",
              "type": "bytes32"
            },
            {
              "internalType": "string",
              "name": "integrator",
              "type": "string"
            },
            {
              "internalType": "address",
              "name": "referrer",
              "type": "address"
            },
            {
              "internalType": "address",
              "name": "sendingAssetId",
              "type": "address"
            },
            {
              "internalType": "address",
              "name": "receivingAssetId",
              "type": "address"
            },
            {
              "internalType": "address",
              "name": "receiver",
              "type": "address"
            },
            {
              "internalType": "uint256",
              "name": "destinationChainId",
              "type": "uint256"
            },
            {
              "internalType": "uint256",
              "name": "amount",
              "type": "uint256"
            }
          ],
          "internalType": "struct ILiFi.LiFiData",
          "name": "_lifiData",
          "type": "tuple"
        },
        {
          "components": [
            {
              "internalType": "address",
              "name": "callTo",
              "type": "address"
            },
            {
              "internalType": "address",
              "name": "approveTo",
              "type": "address"
            },
            {
              "internalType": "address",
              "name": "sendingAssetId",
              "type": "address"
            },
            {
              "internalType": "address",
              "name": "receivingAssetId",
              "type": "address"
            },
            {
              "internalType": "uint256",
              "name": "fromAmount",
              "type": "uint256"
            },
            {
              "internalType": "bytes",
              "name": "callData",
              "type": "bytes"
            }
          ],
          "internalType": "struct LibSwap.SwapData[]",
          "name": "_swapData",
          "type": "tuple[]"
        },
        {
          "components": [
            {
              "internalType": "address",
              "name": "token",
              "type": "address"
            },
            {
              "internalType": "uint256",
              "name": "amount",
              "type": "uint256"
            },
            {
              "internalType": "address",
              "name": "recipient",
              "type": "address"
            },
            {
              "internalType": "uint256",
              "name": "toChainId",
              "type": "uint256"
            }
          ],
          "internalType": "struct AnyswapFacet.AnyswapData",
          "name": "_anyswapData",
          "type": "tuple"
        }
      ],
      "name": "swapAndStartBridgeTokensViaAnyswap",
      "outputs": [],
      "stateMutability": "payable",
      "type": "function"
    }
  ],
  "transactionHash": "0xc76140a9d353451bd6c9bda1a17c075e0342eaadb76d93e645958605faf8d401",
  "args": [],
  "solcInputHash": "66ff470e5813ad3eb1e264cd2297947a",
  "bytecode": "0x608060405234801561001057600080fd5b50611700806100206000396000f3fe60806040526004361061003f5760003560e01c80635621c2ce14610044578063a39dfeaa14610066578063dcf5b78a14610044578063f169857714610079575b600080fd5b34801561005057600080fd5b5061006461005f366004611238565b61008c565b005b6100646100743660046113b7565b6100d5565b61006461008736600461130b565b61027a565b7f35e0ba06bf6ef9140f21e527c0a2799dafbdc2b7d987102a0293b897ee2eebc96100b5610499565b80546001600160a01b0319166001600160a01b0392909216919091179055565b60006100e46020830183611238565b6001600160a01b0316146101e45760006101096101046020840184611238565b610522565b9050600061011a6020840184611238565b6001600160a01b0316636f307dc36040518163ffffffff1660e01b8152600401602060405180830381600087803b15801561015457600080fd5b505af1158015610168573d6000803e3d6000fd5b505050506040513d601f19601f8201168201806040525081019061018c9190611255565b905061019e81333086602001356105b7565b8260200135826101ad83610522565b6101b7919061160d565b146101dd5760405162461bcd60e51b81526004016101d4906114e2565b60405180910390fd5b5050610207565b806020013534146102075760405162461bcd60e51b81526004016101d4906114e2565b610210816105c9565b81600001517f3b254a352757de129783dc1fcdea65d20e49fc091f974551e1dcb4afbf1fdc4683602001518460400151856060015186608001518760a001518860e001518960c001514260405161026e98979695949392919061148a565b60405180910390a25050565b60006102896020830183611238565b6001600160a01b0316146103b85760006102a66020830183611238565b6001600160a01b0316636f307dc36040518163ffffffff1660e01b8152600401602060405180830381600087803b1580156102e057600080fd5b505af11580156102f4573d6000803e3d6000fd5b505050506040513d601f19601f820116820180604052508101906103189190611255565b9050600061032582610522565b905060005b60ff811685111561037957865161036790878760ff851681811061035057610350611686565b9050602002810190610362919061155c565b610841565b8061037181611650565b91505061032a565b5082602001358161038984610522565b610393919061160d565b10156103b15760405162461bcd60e51b81526004016101d4906114e2565b5050610424565b4760005b60ff81168411156103f45785516103e290868660ff851681811061035057610350611686565b806103ec81611650565b9150506103bc565b506020820135610404824761160d565b10156104225760405162461bcd60e51b81526004016101d4906114e2565b505b61042d816105c9565b83600001517f3b254a352757de129783dc1fcdea65d20e49fc091f974551e1dcb4afbf1fdc4685602001518660400151876060015188608001518960a001518a60e001518b60c001514260405161048b98979695949392919061148a565b60405180910390a250505050565b7fc8fcad8db84d3cc18b4c41d551ea0ee66dd599cde068d998e57d5e09332c131c600401546001600160a01b031633146105205760405162461bcd60e51b815260206004820152602260248201527f4c69624469616d6f6e643a204d75737420626520636f6e7472616374206f776e60448201526132b960f11b60648201526084016101d4565b565b60006001600160a01b038216156105af576040516370a0823160e01b81523060048201526001600160a01b038316906370a082319060240160206040518083038186803b15801561057257600080fd5b505afa158015610586573d6000803e3d6000fd5b505050506040513d601f19601f820116820180604052508101906105aa9190611406565b6105b1565b475b92915050565b6105c384848484610a30565b50505050565b7f35e0ba06bf6ef9140f21e527c0a2799dafbdc2b7d987102a0293b897ee2eebc946606083013514156106495760405162461bcd60e51b815260206004820152602260248201527f43616e6e6f742062726964676520746f207468652073616d65206e6574776f72604482015261359760f11b60648201526084016101d4565b60006106586020840184611238565b6001600160a01b0316146107a2576106fd6106766020840184611238565b6001600160a01b0316636f307dc36040518163ffffffff1660e01b8152600401602060405180830381600087803b1580156106b057600080fd5b505af11580156106c4573d6000803e3d6000fd5b505050506040513d601f19601f820116820180604052508101906106e89190611255565b82546001600160a01b03166020850135610a9b565b80546001600160a01b031663edbdf5e261071a6020850185611238565b61072a6060860160408701611238565b6040516001600160e01b031960e085901b1681526001600160a01b039283166004820152911660248201526020850135604482015260608501356064820152608401600060405180830381600087803b15801561078657600080fd5b505af115801561079a573d6000803e3d6000fd5b505050505050565b80546001600160a01b031663a5e56571602084018035906107c39086611238565b6107d36060870160408801611238565b6040516001600160e01b031960e086901b1681526001600160a01b03928316600482015291166024820152606086013560448201526064016000604051808303818588803b15801561082457600080fd5b505af1158015610838573d6000803e3d6000fd5b50505050505050565b6080810180359060009061085c906101049060608601611238565b905060006108706060850160408601611238565b90506001600160a01b0381161515801561089257508261088f82610522565b14155b156108cc576108b26108aa6060860160408701611238565b3330866105b7565b6108cc816108c66040870160208801611238565b85610a9b565b6000806108dc6020870187611238565b6001600160a01b0316346108f360a089018961150e565b60405161090192919061144b565b60006040518083038185875af1925050503d806000811461093e576040519150601f19603f3d011682016040523d82523d6000602084013e610943565b606091505b50915091508161097457600061095882610b50565b90508060405162461bcd60e51b81526004016101d49190611477565b836109886101046080890160608a01611238565b610992919061160d565b93507f7bfdfdb5e3a3776976e53cb0607060f54c5312701c8cba1155cc4d5394440b38876109c36020890189611238565b6109d360608a0160408b01611238565b6109e360808b0160608c01611238565b604080519485526001600160a01b0393841660208601529183168483015290911660608301526080820188905260a082018790524260c0830152519081900360e00190a150505050505050565b6040516001600160a01b03808516602483015283166044820152606481018290526105c39085906323b872dd60e01b906084015b60408051601f198184030181529190526020810180516001600160e01b03166001600160e01b031990931692909217909152610bce565b6001600160a01b038316610aae57505050565b604051636eb1769f60e11b81523060048201526001600160a01b0383811660248301526000919085169063dd62ed3e9060440160206040518083038186803b158015610af957600080fd5b505afa158015610b0d573d6000803e3d6000fd5b505050506040513d601f19601f82011682018060405250810190610b319190611406565b90508015610b4557610b4584846000610ca5565b6105c3848484610dc9565b6060604482511015610b9557505060408051808201909152601d81527f5472616e73616374696f6e2072657665727465642073696c656e746c79000000602082015290565b6000610bb16004808551610ba9919061160d565b859190610e8a565b905080806020019051810190610bc79190611294565b9392505050565b6000610c23826040518060400160405280602081526020017f5361666545524332303a206c6f772d6c6576656c2063616c6c206661696c6564815250856001600160a01b0316610f979092919063ffffffff16565b805190915015610ca05780806020019051810190610c419190611272565b610ca05760405162461bcd60e51b815260206004820152602a60248201527f5361666545524332303a204552433230206f7065726174696f6e20646964206e6044820152691bdd081cdd58d8d9595960b21b60648201526084016101d4565b505050565b801580610d2e5750604051636eb1769f60e11b81523060048201526001600160a01b03838116602483015284169063dd62ed3e9060440160206040518083038186803b158015610cf457600080fd5b505afa158015610d08573d6000803e3d6000fd5b505050506040513d601f19601f82011682018060405250810190610d2c9190611406565b155b610d995760405162461bcd60e51b815260206004820152603660248201527f5361666545524332303a20617070726f76652066726f6d206e6f6e2d7a65726f60448201527520746f206e6f6e2d7a65726f20616c6c6f77616e636560501b60648201526084016101d4565b6040516001600160a01b038316602482015260448101829052610ca090849063095ea7b360e01b90606401610a64565b604051636eb1769f60e11b81523060048201526001600160a01b038381166024830152600091839186169063dd62ed3e9060440160206040518083038186803b158015610e1557600080fd5b505afa158015610e29573d6000803e3d6000fd5b505050506040513d601f19601f82011682018060405250810190610e4d9190611406565b610e5791906115f5565b6040516001600160a01b0385166024820152604481018290529091506105c390859063095ea7b360e01b90606401610a64565b606081610e9881601f6115f5565b1015610ed75760405162461bcd60e51b815260206004820152600e60248201526d736c6963655f6f766572666c6f7760901b60448201526064016101d4565b610ee182846115f5565b84511015610f255760405162461bcd60e51b8152602060048201526011602482015270736c6963655f6f75744f66426f756e647360781b60448201526064016101d4565b606082158015610f445760405191506000825260208201604052610f8e565b6040519150601f8416801560200281840101858101878315602002848b0101015b81831015610f7d578051835260209283019201610f65565b5050858452601f01601f1916604052505b50949350505050565b6060610fa68484600085610fae565b949350505050565b60608247101561100f5760405162461bcd60e51b815260206004820152602660248201527f416464726573733a20696e73756666696369656e742062616c616e636520666f6044820152651c8818d85b1b60d21b60648201526084016101d4565b843b61105d5760405162461bcd60e51b815260206004820152601d60248201527f416464726573733a2063616c6c20746f206e6f6e2d636f6e747261637400000060448201526064016101d4565b600080866001600160a01b03168587604051611079919061145b565b60006040518083038185875af1925050503d80600081146110b6576040519150601f19603f3d011682016040523d82523d6000602084013e6110bb565b606091505b50915091506110cb8282866110d6565b979650505050505050565b606083156110e5575081610bc7565b8251156110f55782518084602001fd5b8160405162461bcd60e51b81526004016101d49190611477565b803561111a816116b2565b919050565b600082601f83011261113057600080fd5b813561114361113e826115cd565b61159c565b81815284602083860101111561115857600080fd5b816020850160208301376000918101602001919091529392505050565b60006080828403121561118757600080fd5b50919050565b600061010082840312156111a057600080fd5b6111a8611572565b905081358152602082013567ffffffffffffffff8111156111c857600080fd5b6111d48482850161111f565b6020830152506111e66040830161110f565b60408201526111f76060830161110f565b60608201526112086080830161110f565b608082015261121960a0830161110f565b60a082015260c082013560c082015260e082013560e082015292915050565b60006020828403121561124a57600080fd5b8135610bc7816116b2565b60006020828403121561126757600080fd5b8151610bc7816116b2565b60006020828403121561128457600080fd5b81518015158114610bc757600080fd5b6000602082840312156112a657600080fd5b815167ffffffffffffffff8111156112bd57600080fd5b8201601f810184136112ce57600080fd5b80516112dc61113e826115cd565b8181528560208385010111156112f157600080fd5b611302826020830160208601611624565b95945050505050565b60008060008060c0858703121561132157600080fd5b843567ffffffffffffffff8082111561133957600080fd5b6113458883890161118d565b9550602087013591508082111561135b57600080fd5b818701915087601f83011261136f57600080fd5b81358181111561137e57600080fd5b8860208260051b850101111561139357600080fd5b6020830195508094505050506113ac8660408701611175565b905092959194509250565b60008060a083850312156113ca57600080fd5b823567ffffffffffffffff8111156113e157600080fd5b6113ed8582860161118d565b9250506113fd8460208501611175565b90509250929050565b60006020828403121561141857600080fd5b5051919050565b60008151808452611437816020860160208601611624565b601f01601f19169290920160200192915050565b8183823760009101908152919050565b6000825161146d818460208701611624565b9190910192915050565b602081526000610bc7602083018461141f565b600061010080835261149e8184018c61141f565b6001600160a01b039a8b166020850152988a1660408401525050948716606086015292909516608084015260a083015260c082019390935260e00191909152919050565b60208082526012908201527111549497d253959053125117d05353d5539560721b604082015260600190565b6000808335601e1984360301811261152557600080fd5b83018035915067ffffffffffffffff82111561154057600080fd5b60200191503681900382131561155557600080fd5b9250929050565b6000823560be1983360301811261146d57600080fd5b604051610100810167ffffffffffffffff811182821017156115965761159661169c565b60405290565b604051601f8201601f1916810167ffffffffffffffff811182821017156115c5576115c561169c565b604052919050565b600067ffffffffffffffff8211156115e7576115e761169c565b50601f01601f191660200190565b6000821982111561160857611608611670565b500190565b60008282101561161f5761161f611670565b500390565b60005b8381101561163f578181015183820152602001611627565b838111156105c35750506000910152565b600060ff821660ff81141561166757611667611670565b60010192915050565b634e487b7160e01b600052601160045260246000fd5b634e487b7160e01b600052603260045260246000fd5b634e487b7160e01b600052604160045260246000fd5b6001600160a01b03811681146116c757600080fd5b5056fea2646970667358221220ce39f048e453998fd6eb70972fcfd9327c2dfb9e665ee299a288f1ef23cd665964736f6c63430008070033",
  "devdoc": {
    "kind": "dev",
    "methods": {
      "changeAnyswapRouter(address)": {
        "details": "Changes address of Anyswap router",
        "params": {
          "_newRouter": "address of the new router"
        }
      },
      "startBridgeTokensViaAnyswap((bytes32,string,address,address,address,address,uint256,uint256),(address,uint256,address,uint256))": {
        "params": {
          "_anyswapData": "data specific to Anyswap",
          "_lifiData": "data used purely for tracking and analytics"
        }
      },
      "swapAndStartBridgeTokensViaAnyswap((bytes32,string,address,address,address,address,uint256,uint256),(address,address,address,address,uint256,bytes)[],(address,uint256,address,uint256))": {
        "params": {
          "_anyswapData": "data specific to Anyswap",
          "_lifiData": "data used purely for tracking and analytics",
          "_swapData": "an array of swap related data for performing swaps before bridging"
        }
      }
    },
    "version": 1
  },
  "userdoc": {
    "kind": "user",
    "methods": {
      "startBridgeTokensViaAnyswap((bytes32,string,address,address,address,address,uint256,uint256),(address,uint256,address,uint256))": {
        "notice": "Bridges tokens via Anyswap"
      },
      "swapAndStartBridgeTokensViaAnyswap((bytes32,string,address,address,address,address,uint256,uint256),(address,address,address,address,uint256,bytes)[],(address,uint256,address,uint256))": {
        "notice": "Performs a swap before bridging via Anyswap"
      }
    },
    "version": 1
  },
  "storageLayout": {
    "storage": [],
    "types": null
  }
}