{
  "address": "0xb6245eED5D8b9Df2CD651417079d5c0b7f5a0b3e",
  "abi": [
    {
      "anonymous": false,
      "inputs": [
        {
          "indexed": true,
          "internalType": "bytes32",
          "name": "transactionId",
          "type": "bytes32"
        },
        {
          "indexed": false,
          "internalType": "address",
          "name": "receivingAssetId",
          "type": "address"
        },
        {
          "indexed": false,
          "internalType": "address",
          "name": "receiver",
          "type": "address"
        },
        {
          "indexed": false,
          "internalType": "uint256",
          "name": "amount",
          "type": "uint256"
        },
        {
          "indexed": false,
          "internalType": "uint256",
          "name": "timestamp",
          "type": "uint256"
        }
      ],
      "name": "LiFiTransferCompleted",
      "type": "event"
    },
    {
      "anonymous": false,
      "inputs": [
        {
          "indexed": true,
          "internalType": "bytes32",
          "name": "transactionId",
          "type": "bytes32"
        },
        {
          "indexed": false,
          "internalType": "string",
          "name": "integrator",
          "type": "string"
        },
        {
          "indexed": false,
          "internalType": "address",
          "name": "referrer",
          "type": "address"
        },
        {
          "indexed": false,
          "internalType": "address",
          "name": "sendingAssetId",
          "type": "address"
        },
        {
          "indexed": false,
          "internalType": "address",
          "name": "receivingAssetId",
          "type": "address"
        },
        {
          "indexed": false,
          "internalType": "address",
          "name": "receiver",
          "type": "address"
        },
        {
          "indexed": false,
          "internalType": "uint256",
          "name": "amount",
          "type": "uint256"
        },
        {
          "indexed": false,
          "internalType": "uint256",
          "name": "destinationChainId",
          "type": "uint256"
        },
        {
          "indexed": false,
          "internalType": "uint256",
          "name": "timestamp",
          "type": "uint256"
        }
      ],
      "name": "LiFiTransferConfirmed",
      "type": "event"
    },
    {
      "anonymous": false,
      "inputs": [
        {
          "indexed": true,
          "internalType": "bytes32",
          "name": "transactionId",
          "type": "bytes32"
        },
        {
          "indexed": false,
          "internalType": "string",
          "name": "integrator",
          "type": "string"
        },
        {
          "indexed": false,
          "internalType": "address",
          "name": "referrer",
          "type": "address"
        },
        {
          "indexed": false,
          "internalType": "address",
          "name": "sendingAssetId",
          "type": "address"
        },
        {
          "indexed": false,
          "internalType": "address",
          "name": "receivingAssetId",
          "type": "address"
        },
        {
          "indexed": false,
          "internalType": "address",
          "name": "receiver",
          "type": "address"
        },
        {
          "indexed": false,
          "internalType": "uint256",
          "name": "amount",
          "type": "uint256"
        },
        {
          "indexed": false,
          "internalType": "uint256",
          "name": "destinationChainId",
          "type": "uint256"
        },
        {
          "indexed": false,
          "internalType": "uint256",
          "name": "timestamp",
          "type": "uint256"
        }
      ],
      "name": "LiFiTransferRefunded",
      "type": "event"
    },
    {
      "anonymous": false,
      "inputs": [
        {
          "indexed": true,
          "internalType": "bytes32",
          "name": "transactionId",
          "type": "bytes32"
        },
        {
          "indexed": false,
          "internalType": "string",
          "name": "integrator",
          "type": "string"
        },
        {
          "indexed": false,
          "internalType": "address",
          "name": "referrer",
          "type": "address"
        },
        {
          "indexed": false,
          "internalType": "address",
          "name": "sendingAssetId",
          "type": "address"
        },
        {
          "indexed": false,
          "internalType": "address",
          "name": "receivingAssetId",
          "type": "address"
        },
        {
          "indexed": false,
          "internalType": "address",
          "name": "receiver",
          "type": "address"
        },
        {
          "indexed": false,
          "internalType": "uint256",
          "name": "amount",
          "type": "uint256"
        },
        {
          "indexed": false,
          "internalType": "uint256",
          "name": "destinationChainId",
          "type": "uint256"
        },
        {
          "indexed": false,
          "internalType": "uint256",
          "name": "timestamp",
          "type": "uint256"
        }
      ],
      "name": "LiFiTransferStarted",
      "type": "event"
    },
    {
      "inputs": [
        {
          "components": [
            {
              "internalType": "bytes32",
              "name": "transactionId",
              "type": "bytes32"
            },
            {
              "internalType": "string",
              "name": "integrator",
              "type": "string"
            },
            {
              "internalType": "address",
              "name": "referrer",
              "type": "address"
            },
            {
              "internalType": "address",
              "name": "sendingAssetId",
              "type": "address"
            },
            {
              "internalType": "address",
              "name": "receivingAssetId",
              "type": "address"
            },
            {
              "internalType": "address",
              "name": "receiver",
              "type": "address"
            },
            {
              "internalType": "uint256",
              "name": "destinationChainId",
              "type": "uint256"
            },
            {
              "internalType": "uint256",
              "name": "amount",
              "type": "uint256"
            }
          ],
          "internalType": "struct ILiFi.LiFiData",
          "name": "_lifiData",
          "type": "tuple"
        },
        {
          "internalType": "bytes32",
          "name": "_transferId",
          "type": "bytes32"
        },
        {
          "internalType": "bytes32",
          "name": "_preimage",
          "type": "bytes32"
        }
      ],
      "name": "confirmTransaction",
      "outputs": [],
      "stateMutability": "nonpayable",
      "type": "function"
    },
    {
      "inputs": [
        {
          "internalType": "address",
          "name": "_cBridge",
          "type": "address"
        },
        {
          "internalType": "uint256",
          "name": "_chainId",
          "type": "uint256"
        }
      ],
      "name": "initCbridge",
      "outputs": [],
      "stateMutability": "nonpayable",
      "type": "function"
    },
    {
      "inputs": [
        {
          "components": [
            {
              "internalType": "bytes32",
              "name": "transactionId",
              "type": "bytes32"
            },
            {
              "internalType": "string",
              "name": "integrator",
              "type": "string"
            },
            {
              "internalType": "address",
              "name": "referrer",
              "type": "address"
            },
            {
              "internalType": "address",
              "name": "sendingAssetId",
              "type": "address"
            },
            {
              "internalType": "address",
              "name": "receivingAssetId",
              "type": "address"
            },
            {
              "internalType": "address",
              "name": "receiver",
              "type": "address"
            },
            {
              "internalType": "uint256",
              "name": "destinationChainId",
              "type": "uint256"
            },
            {
              "internalType": "uint256",
              "name": "amount",
              "type": "uint256"
            }
          ],
          "internalType": "struct ILiFi.LiFiData",
          "name": "_lifiData",
          "type": "tuple"
        },
        {
          "internalType": "bytes32",
          "name": "_transferId",
          "type": "bytes32"
        }
      ],
      "name": "refund",
      "outputs": [],
      "stateMutability": "nonpayable",
      "type": "function"
    },
    {
      "inputs": [
        {
          "components": [
            {
              "internalType": "bytes32",
              "name": "transactionId",
              "type": "bytes32"
            },
            {
              "internalType": "string",
              "name": "integrator",
              "type": "string"
            },
            {
              "internalType": "address",
              "name": "referrer",
              "type": "address"
            },
            {
              "internalType": "address",
              "name": "sendingAssetId",
              "type": "address"
            },
            {
              "internalType": "address",
              "name": "receivingAssetId",
              "type": "address"
            },
            {
              "internalType": "address",
              "name": "receiver",
              "type": "address"
            },
            {
              "internalType": "uint256",
              "name": "destinationChainId",
              "type": "uint256"
            },
            {
              "internalType": "uint256",
              "name": "amount",
              "type": "uint256"
            }
          ],
          "internalType": "struct ILiFi.LiFiData",
          "name": "_lifiData",
          "type": "tuple"
        },
        {
          "components": [
            {
              "internalType": "address",
              "name": "bridge",
              "type": "address"
            },
            {
              "internalType": "address",
              "name": "token",
              "type": "address"
            },
            {
              "internalType": "uint256",
              "name": "amount",
              "type": "uint256"
            },
            {
              "internalType": "bytes32",
              "name": "hashlock",
              "type": "bytes32"
            },
            {
              "internalType": "uint64",
              "name": "timelock",
              "type": "uint64"
            },
            {
              "internalType": "uint64",
              "name": "dstChainId",
              "type": "uint64"
            },
            {
              "internalType": "address",
              "name": "dstAddress",
              "type": "address"
            }
          ],
          "internalType": "struct CBridgeFacet.CBridgeData",
          "name": "_cBridgeData",
          "type": "tuple"
        }
      ],
      "name": "startBridgeTokensViaCBridge",
      "outputs": [],
      "stateMutability": "payable",
      "type": "function"
    },
    {
      "inputs": [
        {
          "components": [
            {
              "internalType": "bytes32",
              "name": "transactionId",
              "type": "bytes32"
            },
            {
              "internalType": "string",
              "name": "integrator",
              "type": "string"
            },
            {
              "internalType": "address",
              "name": "referrer",
              "type": "address"
            },
            {
              "internalType": "address",
              "name": "sendingAssetId",
              "type": "address"
            },
            {
              "internalType": "address",
              "name": "receivingAssetId",
              "type": "address"
            },
            {
              "internalType": "address",
              "name": "receiver",
              "type": "address"
            },
            {
              "internalType": "uint256",
              "name": "destinationChainId",
              "type": "uint256"
            },
            {
              "internalType": "uint256",
              "name": "amount",
              "type": "uint256"
            }
          ],
          "internalType": "struct ILiFi.LiFiData",
          "name": "_lifiData",
          "type": "tuple"
        },
        {
          "components": [
            {
              "internalType": "address",
              "name": "callTo",
              "type": "address"
            },
            {
              "internalType": "address",
              "name": "approveTo",
              "type": "address"
            },
            {
              "internalType": "address",
              "name": "sendingAssetId",
              "type": "address"
            },
            {
              "internalType": "address",
              "name": "receivingAssetId",
              "type": "address"
            },
            {
              "internalType": "uint256",
              "name": "fromAmount",
              "type": "uint256"
            },
            {
              "internalType": "bytes",
              "name": "callData",
              "type": "bytes"
            }
          ],
          "internalType": "struct LibSwap.SwapData[]",
          "name": "_swapData",
          "type": "tuple[]"
        },
        {
          "components": [
            {
              "internalType": "address",
              "name": "bridge",
              "type": "address"
            },
            {
              "internalType": "address",
              "name": "token",
              "type": "address"
            },
            {
              "internalType": "uint256",
              "name": "amount",
              "type": "uint256"
            },
            {
              "internalType": "bytes32",
              "name": "hashlock",
              "type": "bytes32"
            },
            {
              "internalType": "uint64",
              "name": "timelock",
              "type": "uint64"
            },
            {
              "internalType": "uint64",
              "name": "dstChainId",
              "type": "uint64"
            },
            {
              "internalType": "address",
              "name": "dstAddress",
              "type": "address"
            }
          ],
          "internalType": "struct CBridgeFacet.CBridgeData",
          "name": "_cBridgeData",
          "type": "tuple"
        }
      ],
      "name": "swapAndStartBridgeTokensViaCBridge",
      "outputs": [],
      "stateMutability": "payable",
      "type": "function"
    }
  ],
  "transactionHash": "0x3c8242b9959497962344e69a0c067b686aab13cf4e2c7c53576a450d14d51221",
  "args": [],
  "solcInputHash": "e74bd1276f9143a18693b235b7aaecb0",
  "bytecode": "0x608060405234801561001057600080fd5b50611746806100206000396000f3fe60806040526004361061004a5760003560e01c8063140193141461004f5780638e6653c3146100645780639c9a67e814610077578063a1cb9d2d14610097578063acb9caf5146100b7575b600080fd5b61006261005d36600461141c565b6100d7565b005b6100626100723660046112df565b6101f1565b34801561008357600080fd5b5061006261009236600461138b565b61034a565b3480156100a357600080fd5b506100626100b23660046113cf565b610419565b3480156100c357600080fd5b506100626100d236600461121d565b6104fd565b60006100f16100ec6040840160208501611202565b61052b565b90506101126101066040840160208501611202565b333085604001356105c0565b60408201803590829061012c906100ec9060208701611202565b610136919061166b565b1461017d5760405162461bcd60e51b815260206004820152601260248201527111549497d253959053125117d05353d5539560721b60448201526064015b60405180910390fd5b610186826105d2565b82600001517f3b254a352757de129783dc1fcdea65d20e49fc091f974551e1dcb4afbf1fdc4684602001518560400151866060015187608001518860a001518960e001518a60c00151426040516101e4989796959493929190611518565b60405180910390a2505050565b60006102066100ec6040840160208501611202565b905061021b6101066040840160208501611202565b60005b60ff811684111561026d57855161025b90868660ff8516818110610244576102446116e4565b905060200281019061025691906115bd565b610777565b80610265816116ae565b91505061021e565b50604082018035908290610288906100ec9060208701611202565b610292919061166b565b146102d45760405162461bcd60e51b815260206004820152601260248201527111549497d253959053125117d05353d5539560721b6044820152606401610174565b6102dd826105d2565b84600001517f3b254a352757de129783dc1fcdea65d20e49fc091f974551e1dcb4afbf1fdc4686602001518760400151886060015189608001518a60a001518b60e001518c60c001514260405161033b989796959493929190611518565b60405180910390a25050505050565b600061035e6004546001600160a01b031690565b604051633924fddb60e11b8152600481018490529091506001600160a01b03821690637249fbb690602401600060405180830381600087803b1580156103a357600080fd5b505af11580156103b7573d6000803e3d6000fd5b5050505082600001517f49af2975d7fe00ea9a54431f3762c31061c5d8cb55e0dae314731cf3680823b584602001518560400151866060015187608001518860a001518960e001518a60c00151426040516101e4989796959493929190611518565b600061042d6004546001600160a01b031690565b604051632bfbc25d60e11b815260048101859052602481018490529091506001600160a01b038216906357f784ba90604401600060405180830381600087803b15801561047957600080fd5b505af115801561048d573d6000803e3d6000fd5b5050505083600001517fd62e9a9297c593d41363aef401adc80dde6d48917d192e516a613458fe19fcd385602001518660400151876060015188608001518960a001518a60e001518b60c00151426040516104ef989796959493929190611518565b60405180910390a250505050565b610505610966565b600480546001600160a01b0319166001600160a01b039390931692909217909155600555565b60006001600160a01b038216156105b8576040516370a0823160e01b81523060048201526001600160a01b038316906370a082319060240160206040518083038186803b15801561057b57600080fd5b505afa15801561058f573d6000803e3d6000fd5b505050506040513d601f19601f820116820180604052508101906105b3919061146b565b6105ba565b475b92915050565b6105cc848484846109ef565b50505050565b60006105e66004546001600160a01b031690565b90506105f860c0830160a08401611484565b6001600160401b031660006005015414156106605760405162461bcd60e51b815260206004820152602260248201527f43616e6e6f742062726964676520746f207468652073616d65206e6574776f72604482015261359760f11b6064820152608401610174565b61067e6106736040840160208501611202565b828460400135610a5a565b6001600160a01b0381166346b4002761069a6020850185611202565b6106aa6040860160208701611202565b604086013560608701356106c460a0890160808a01611484565b6106d460c08a0160a08b01611484565b6106e460e08b0160c08c01611202565b60405160e089901b6001600160e01b03191681526001600160a01b0397881660048201529587166024870152604486019490945260648501929092526001600160401b0390811660848501521660a483015290911660c482015260e401600060405180830381600087803b15801561075b57600080fd5b505af115801561076f573d6000803e3d6000fd5b505050505050565b60808101803590600090610792906100ec9060608601611202565b905060006107a66060850160408601611202565b90506001600160a01b038116151580156107c85750826107c58261052b565b14155b15610802576107e86107e06060860160408701611202565b3330866105c0565b610802816107fc6040870160208801611202565b85610a5a565b6000806108126020870187611202565b6001600160a01b03163461082960a0890189611570565b6040516108379291906114d9565b60006040518083038185875af1925050503d8060008114610874576040519150601f19603f3d011682016040523d82523d6000602084013e610879565b606091505b5091509150816108aa57600061088e82610b0f565b90508060405162461bcd60e51b81526004016101749190611505565b836108be6100ec6080890160608a01611202565b6108c8919061166b565b93507f7bfdfdb5e3a3776976e53cb0607060f54c5312701c8cba1155cc4d5394440b38876108f96020890189611202565b61090960608a0160408b01611202565b61091960808b0160608c01611202565b604080519485526001600160a01b0393841660208601529183168483015290911660608301526080820188905260a082018790524260c0830152519081900360e00190a150505050505050565b7fc8fcad8db84d3cc18b4c41d551ea0ee66dd599cde068d998e57d5e09332c131c600401546001600160a01b031633146109ed5760405162461bcd60e51b815260206004820152602260248201527f4c69624469616d6f6e643a204d75737420626520636f6e7472616374206f776e60448201526132b960f11b6064820152608401610174565b565b6040516001600160a01b03808516602483015283166044820152606481018290526105cc9085906323b872dd60e01b906084015b60408051601f198184030181529190526020810180516001600160e01b03166001600160e01b031990931692909217909152610b8d565b6001600160a01b038316610a6d57505050565b604051636eb1769f60e11b81523060048201526001600160a01b0383811660248301526000919085169063dd62ed3e9060440160206040518083038186803b158015610ab857600080fd5b505afa158015610acc573d6000803e3d6000fd5b505050506040513d601f19601f82011682018060405250810190610af0919061146b565b90508015610b0457610b0484846000610c64565b6105cc848484610d88565b6060604482511015610b5457505060408051808201909152601d81527f5472616e73616374696f6e2072657665727465642073696c656e746c79000000602082015290565b6000610b706004808551610b68919061166b565b859190610e49565b905080806020019051810190610b869190611269565b9392505050565b6000610be2826040518060400160405280602081526020017f5361666545524332303a206c6f772d6c6576656c2063616c6c206661696c6564815250856001600160a01b0316610f569092919063ffffffff16565b805190915015610c5f5780806020019051810190610c009190611247565b610c5f5760405162461bcd60e51b815260206004820152602a60248201527f5361666545524332303a204552433230206f7065726174696f6e20646964206e6044820152691bdd081cdd58d8d9595960b21b6064820152608401610174565b505050565b801580610ced5750604051636eb1769f60e11b81523060048201526001600160a01b03838116602483015284169063dd62ed3e9060440160206040518083038186803b158015610cb357600080fd5b505afa158015610cc7573d6000803e3d6000fd5b505050506040513d601f19601f82011682018060405250810190610ceb919061146b565b155b610d585760405162461bcd60e51b815260206004820152603660248201527f5361666545524332303a20617070726f76652066726f6d206e6f6e2d7a65726f60448201527520746f206e6f6e2d7a65726f20616c6c6f77616e636560501b6064820152608401610174565b6040516001600160a01b038316602482015260448101829052610c5f90849063095ea7b360e01b90606401610a23565b604051636eb1769f60e11b81523060048201526001600160a01b038381166024830152600091839186169063dd62ed3e9060440160206040518083038186803b158015610dd457600080fd5b505afa158015610de8573d6000803e3d6000fd5b505050506040513d601f19601f82011682018060405250810190610e0c919061146b565b610e169190611653565b6040516001600160a01b0385166024820152604481018290529091506105cc90859063095ea7b360e01b90606401610a23565b606081610e5781601f611653565b1015610e965760405162461bcd60e51b815260206004820152600e60248201526d736c6963655f6f766572666c6f7760901b6044820152606401610174565b610ea08284611653565b84511015610ee45760405162461bcd60e51b8152602060048201526011602482015270736c6963655f6f75744f66426f756e647360781b6044820152606401610174565b606082158015610f035760405191506000825260208201604052610f4d565b6040519150601f8416801560200281840101858101878315602002848b0101015b81831015610f3c578051835260209283019201610f24565b5050858452601f01601f1916604052505b50949350505050565b6060610f658484600085610f6d565b949350505050565b606082471015610fce5760405162461bcd60e51b815260206004820152602660248201527f416464726573733a20696e73756666696369656e742062616c616e636520666f6044820152651c8818d85b1b60d21b6064820152608401610174565b843b61101c5760405162461bcd60e51b815260206004820152601d60248201527f416464726573733a2063616c6c20746f206e6f6e2d636f6e74726163740000006044820152606401610174565b600080866001600160a01b0316858760405161103891906114e9565b60006040518083038185875af1925050503d8060008114611075576040519150601f19603f3d011682016040523d82523d6000602084013e61107a565b606091505b509150915061108a828286611095565b979650505050505050565b606083156110a4575081610b86565b8251156110b45782518084602001fd5b8160405162461bcd60e51b81526004016101749190611505565b80356001600160a01b03811681146110e557600080fd5b919050565b600082601f8301126110fb57600080fd5b813561110e6111098261162c565b6115fc565b81815284602083860101111561112357600080fd5b816020850160208301376000918101602001919091529392505050565b600060e0828403121561115257600080fd5b50919050565b6000610100828403121561116b57600080fd5b6111736115d3565b90508135815260208201356001600160401b0381111561119257600080fd5b61119e848285016110ea565b6020830152506111b0604083016110ce565b60408201526111c1606083016110ce565b60608201526111d2608083016110ce565b60808201526111e360a083016110ce565b60a082015260c082013560c082015260e082013560e082015292915050565b60006020828403121561121457600080fd5b610b86826110ce565b6000806040838503121561123057600080fd5b611239836110ce565b946020939093013593505050565b60006020828403121561125957600080fd5b81518015158114610b8657600080fd5b60006020828403121561127b57600080fd5b81516001600160401b0381111561129157600080fd5b8201601f810184136112a257600080fd5b80516112b06111098261162c565b8181528560208385010111156112c557600080fd5b6112d6826020830160208601611682565b95945050505050565b60008060008061012085870312156112f657600080fd5b84356001600160401b038082111561130d57600080fd5b61131988838901611158565b9550602087013591508082111561132f57600080fd5b818701915087601f83011261134357600080fd5b81358181111561135257600080fd5b8860208260051b850101111561136757600080fd5b6020830195508094505050506113808660408701611140565b905092959194509250565b6000806040838503121561139e57600080fd5b82356001600160401b038111156113b457600080fd5b6113c085828601611158565b95602094909401359450505050565b6000806000606084860312156113e457600080fd5b83356001600160401b038111156113fa57600080fd5b61140686828701611158565b9660208601359650604090950135949350505050565b600080610100838503121561143057600080fd5b82356001600160401b0381111561144657600080fd5b61145285828601611158565b9250506114628460208501611140565b90509250929050565b60006020828403121561147d57600080fd5b5051919050565b60006020828403121561149657600080fd5b81356001600160401b0381168114610b8657600080fd5b600081518084526114c5816020860160208601611682565b601f01601f19169290920160200192915050565b8183823760009101908152919050565b600082516114fb818460208701611682565b9190910192915050565b602081526000610b8660208301846114ad565b600061010080835261152c8184018c6114ad565b6001600160a01b039a8b166020850152988a1660408401525050948716606086015292909516608084015260a083015260c082019390935260e00191909152919050565b6000808335601e1984360301811261158757600080fd5b8301803591506001600160401b038211156115a157600080fd5b6020019150368190038213156115b657600080fd5b9250929050565b6000823560be198336030181126114fb57600080fd5b60405161010081016001600160401b03811182821017156115f6576115f66116fa565b60405290565b604051601f8201601f191681016001600160401b0381118282101715611624576116246116fa565b604052919050565b60006001600160401b03821115611645576116456116fa565b50601f01601f191660200190565b60008219821115611666576116666116ce565b500190565b60008282101561167d5761167d6116ce565b500390565b60005b8381101561169d578181015183820152602001611685565b838111156105cc5750506000910152565b600060ff821660ff8114156116c5576116c56116ce565b60010192915050565b634e487b7160e01b600052601160045260246000fd5b634e487b7160e01b600052603260045260246000fd5b634e487b7160e01b600052604160045260246000fdfea264697066735822122068e462eb312ebfea830efbe6d5c33d6643fda6683c99a1fd51735bd7d8f1d2ee64736f6c63430008070033",
  "devdoc": {
    "kind": "dev",
    "methods": {},
    "version": 1
  },
  "userdoc": {
    "kind": "user",
    "methods": {},
    "version": 1
  },
  "storageLayout": {
    "storage": [
      {
        "astId": 1599,
        "contract": "src/Facets/CBridgeFacet.sol:CBridgeFacet",
        "label": "s",
        "offset": 0,
        "slot": "0",
        "type": "t_struct(AppStorage)4181_storage"
      }
    ],
    "types": {
      "t_address": {
        "encoding": "inplace",
        "label": "address",
        "numberOfBytes": "20"
      },
      "t_contract(ITransactionManager)4039": {
        "encoding": "inplace",
        "label": "contract ITransactionManager",
        "numberOfBytes": "20"
      },
      "t_mapping(t_string_memory_ptr,t_struct(BridgeConfig)3610_storage)": {
        "encoding": "mapping",
        "key": "t_string_memory_ptr",
        "label": "mapping(string => struct IHopBridge.BridgeConfig)",
        "numberOfBytes": "32",
        "value": "t_struct(BridgeConfig)3610_storage"
      },
      "t_string_memory_ptr": {
        "encoding": "bytes",
        "label": "string",
        "numberOfBytes": "32"
      },
      "t_struct(AppStorage)4181_storage": {
        "encoding": "inplace",
        "label": "struct AppStorage",
        "members": [
          {
            "astId": 4167,
            "contract": "src/Facets/CBridgeFacet.sol:CBridgeFacet",
            "label": "nxtpTxManager",
            "offset": 0,
            "slot": "0",
            "type": "t_contract(ITransactionManager)4039"
          },
          {
            "astId": 4172,
            "contract": "src/Facets/CBridgeFacet.sol:CBridgeFacet",
            "label": "hopBridges",
            "offset": 0,
            "slot": "1",
            "type": "t_mapping(t_string_memory_ptr,t_struct(BridgeConfig)3610_storage)"
          },
          {
            "astId": 4174,
            "contract": "src/Facets/CBridgeFacet.sol:CBridgeFacet",
            "label": "hopChainId",
            "offset": 0,
            "slot": "2",
            "type": "t_uint256"
          },
          {
            "astId": 4176,
            "contract": "src/Facets/CBridgeFacet.sol:CBridgeFacet",
            "label": "anyswapRouter",
            "offset": 0,
            "slot": "3",
            "type": "t_address"
          },
          {
            "astId": 4178,
            "contract": "src/Facets/CBridgeFacet.sol:CBridgeFacet",
            "label": "cBridge",
            "offset": 0,
            "slot": "4",
            "type": "t_address"
          },
          {
            "astId": 4180,
            "contract": "src/Facets/CBridgeFacet.sol:CBridgeFacet",
            "label": "cBridgeChainId",
            "offset": 0,
            "slot": "5",
            "type": "t_uint256"
          }
        ],
        "numberOfBytes": "192"
      },
      "t_struct(BridgeConfig)3610_storage": {
        "encoding": "inplace",
        "label": "struct IHopBridge.BridgeConfig",
        "members": [
          {
            "astId": 3605,
            "contract": "src/Facets/CBridgeFacet.sol:CBridgeFacet",
            "label": "token",
            "offset": 0,
            "slot": "0",
            "type": "t_address"
          },
          {
            "astId": 3607,
            "contract": "src/Facets/CBridgeFacet.sol:CBridgeFacet",
            "label": "bridge",
            "offset": 0,
            "slot": "1",
            "type": "t_address"
          },
          {
            "astId": 3609,
            "contract": "src/Facets/CBridgeFacet.sol:CBridgeFacet",
            "label": "ammWrapper",
            "offset": 0,
            "slot": "2",
            "type": "t_address"
          }
        ],
        "numberOfBytes": "96"
      },
      "t_uint256": {
        "encoding": "inplace",
        "label": "uint256",
        "numberOfBytes": "32"
      }
    }
  }
}