{
  "address": "0xee6E6aA17ad1A7d7F789445B828d1d20454b7827",
  "abi": [
    {
      "inputs": [
        {
          "internalType": "string[]",
          "name": "_tokens",
          "type": "string[]"
        },
        {
          "components": [
            {
              "internalType": "address",
              "name": "token",
              "type": "address"
            },
            {
              "internalType": "address",
              "name": "hToken",
              "type": "address"
            },
            {
              "internalType": "address",
              "name": "bridge",
              "type": "address"
            }
          ],
          "internalType": "struct IHopBridge.BridgeConfig[]",
          "name": "_bridgeConfigs",
          "type": "tuple[]"
        },
        {
          "internalType": "uint256",
          "name": "_chainId",
          "type": "uint256"
        }
      ],
      "name": "init",
      "outputs": [],
      "stateMutability": "nonpayable",
      "type": "function"
    }
  ],
  "transactionHash": "0xe83f0dd2237fba505a19f8f817d01ceb1698493f4090e002ccc8d15bed44cf07",
  "args": [],
  "solcInputHash": "0afe9d71136b27bba4376c61e34b7e04",
  "bytecode": "0x608060405234801561001057600080fd5b506107a7806100206000396000f3fe608060405234801561001057600080fd5b506004361061002b5760003560e01c8063c01f5df014610030575b600080fd5b61004a6004803603810190610045919061040a565b61004c565b005b60005b83518160ff1610156101a257828160ff1681518110610071576100706106b6565b5b60200260200101516000600101858360ff1681518110610094576100936106b6565b5b60200260200101516040516100a991906104c6565b908152602001604051809103902060008201518160000160006101000a81548173ffffffffffffffffffffffffffffffffffffffff021916908373ffffffffffffffffffffffffffffffffffffffff16021790555060208201518160010160006101000a81548173ffffffffffffffffffffffffffffffffffffffff021916908373ffffffffffffffffffffffffffffffffffffffff16021790555060408201518160020160006101000a81548173ffffffffffffffffffffffffffffffffffffffff021916908373ffffffffffffffffffffffffffffffffffffffff160217905550905050808061019a9061065d565b91505061004f565b5080600060020181905550505050565b60006101c56101c084610502565b6104dd565b905080838252602082019050828560208602820111156101e8576101e761071e565b5b60005b8581101561023657813567ffffffffffffffff81111561020e5761020d610714565b5b80860161021b8982610363565b855260208501945060208401935050506001810190506101eb565b5050509392505050565b600061025361024e8461052e565b6104dd565b905080838252602082019050828560608602820111156102765761027561071e565b5b60005b858110156102a6578161028c8882610391565b845260208401935060608301925050600181019050610279565b5050509392505050565b60006102c36102be8461055a565b6104dd565b9050828152602081018484840111156102df576102de610723565b5b6102ea8482856105ea565b509392505050565b60008135905061030181610743565b92915050565b600082601f83011261031c5761031b610714565b5b813561032c8482602086016101b2565b91505092915050565b600082601f83011261034a57610349610714565b5b813561035a848260208601610240565b91505092915050565b600082601f83011261037857610377610714565b5b81356103888482602086016102b0565b91505092915050565b6000606082840312156103a7576103a6610719565b5b6103b160606104dd565b905060006103c1848285016102f2565b60008301525060206103d5848285016102f2565b60208301525060406103e9848285016102f2565b60408301525092915050565b6000813590506104048161075a565b92915050565b6000806000606084860312156104235761042261072d565b5b600084013567ffffffffffffffff81111561044157610440610728565b5b61044d86828701610307565b935050602084013567ffffffffffffffff81111561046e5761046d610728565b5b61047a86828701610335565b925050604061048b868287016103f5565b9150509250925092565b60006104a08261058b565b6104aa8185610596565b93506104ba8185602086016105f9565b80840191505092915050565b60006104d28284610495565b915081905092915050565b60006104e76104f8565b90506104f3828261062c565b919050565b6000604051905090565b600067ffffffffffffffff82111561051d5761051c6106e5565b5b602082029050602081019050919050565b600067ffffffffffffffff821115610549576105486106e5565b5b602082029050602081019050919050565b600067ffffffffffffffff821115610575576105746106e5565b5b61057e82610732565b9050602081019050919050565b600081519050919050565b600081905092915050565b60006105ac826105b3565b9050919050565b600073ffffffffffffffffffffffffffffffffffffffff82169050919050565b6000819050919050565b600060ff82169050919050565b82818337600083830152505050565b60005b838110156106175780820151818401526020810190506105fc565b83811115610626576000848401525b50505050565b61063582610732565b810181811067ffffffffffffffff82111715610654576106536106e5565b5b80604052505050565b6000610668826105dd565b915060ff82141561067c5761067b610687565b5b600182019050919050565b7f4e487b7100000000000000000000000000000000000000000000000000000000600052601160045260246000fd5b7f4e487b7100000000000000000000000000000000000000000000000000000000600052603260045260246000fd5b7f4e487b7100000000000000000000000000000000000000000000000000000000600052604160045260246000fd5b600080fd5b600080fd5b600080fd5b600080fd5b600080fd5b600080fd5b6000601f19601f8301169050919050565b61074c816105a1565b811461075757600080fd5b50565b610763816105d3565b811461076e57600080fd5b5056fea26469706673582212201fdf704649d892fe9542cb5e63968fd0ca72adc431a2fa92a30123833e83915e64736f6c63430008070033",
  "devdoc": {
    "kind": "dev",
    "methods": {},
    "version": 1
  },
  "userdoc": {
    "kind": "user",
    "methods": {},
    "version": 1
  },
  "storageLayout": {
    "storage": [
      {
        "astId": 3205,
        "contract": "src/UpgradeInit/HopInit.sol:HopInit",
        "label": "s",
        "offset": 0,
        "slot": "0",
        "type": "t_struct(AppStorage)2406_storage"
      }
    ],
    "types": {
      "t_address": {
        "encoding": "inplace",
        "label": "address",
        "numberOfBytes": "20"
      },
      "t_contract(ITransactionManager)2389": {
        "encoding": "inplace",
        "label": "contract ITransactionManager",
        "numberOfBytes": "20"
      },
      "t_mapping(t_string_memory_ptr,t_struct(BridgeConfig)2004_storage)": {
        "encoding": "mapping",
        "key": "t_string_memory_ptr",
        "label": "mapping(string => struct IHopBridge.BridgeConfig)",
        "numberOfBytes": "32",
        "value": "t_struct(BridgeConfig)2004_storage"
      },
      "t_string_memory_ptr": {
        "encoding": "bytes",
        "label": "string",
        "numberOfBytes": "32"
      },
      "t_struct(AppStorage)2406_storage": {
        "encoding": "inplace",
        "label": "struct AppStorage",
        "members": [
          {
            "astId": 2398,
            "contract": "src/UpgradeInit/HopInit.sol:HopInit",
            "label": "nxtpTxManager",
            "offset": 0,
            "slot": "0",
            "type": "t_contract(ITransactionManager)2389"
          },
          {
            "astId": 2403,
            "contract": "src/UpgradeInit/HopInit.sol:HopInit",
            "label": "hopBridges",
            "offset": 0,
            "slot": "1",
            "type": "t_mapping(t_string_memory_ptr,t_struct(BridgeConfig)2004_storage)"
          },
          {
            "astId": 2405,
            "contract": "src/UpgradeInit/HopInit.sol:HopInit",
            "label": "hopChainId",
            "offset": 0,
            "slot": "2",
            "type": "t_uint256"
          }
        ],
        "numberOfBytes": "96"
      },
      "t_struct(BridgeConfig)2004_storage": {
        "encoding": "inplace",
        "label": "struct IHopBridge.BridgeConfig",
        "members": [
          {
            "astId": 1999,
            "contract": "src/UpgradeInit/HopInit.sol:HopInit",
            "label": "token",
            "offset": 0,
            "slot": "0",
            "type": "t_address"
          },
          {
            "astId": 2001,
            "contract": "src/UpgradeInit/HopInit.sol:HopInit",
            "label": "hToken",
            "offset": 0,
            "slot": "1",
            "type": "t_address"
          },
          {
            "astId": 2003,
            "contract": "src/UpgradeInit/HopInit.sol:HopInit",
            "label": "bridge",
            "offset": 0,
            "slot": "2",
            "type": "t_address"
          }
        ],
        "numberOfBytes": "96"
      },
      "t_uint256": {
        "encoding": "inplace",
        "label": "uint256",
        "numberOfBytes": "32"
      }
    }
  }
}