{
  "address": "0x7d9EE886051cC918aE76a4169CC1540E1ed1E4d6",
  "abi": [
    {
      "inputs": [
        {
          "internalType": "contract ITransactionManager",
          "name": "_txMgrAddr",
          "type": "address"
        }
      ],
      "name": "init",
      "outputs": [],
      "stateMutability": "nonpayable",
      "type": "function"
    }
  ],
  "transactionHash": "0xf23f852b53b6b12c584aa9feca3226839fa63aab863c62e123d46dcc66549365",
  "args": [],
  "solcInputHash": "0afe9d71136b27bba4376c61e34b7e04",
  "bytecode": "0x608060405234801561001057600080fd5b5061016a806100206000396000f3fe608060405234801561001057600080fd5b506004361061002b5760003560e01c806319ab453c14610030575b600080fd5b61004a600480360381019061004591906100a7565b61004c565b005b806000800160006101000a81548173ffffffffffffffffffffffffffffffffffffffff021916908373ffffffffffffffffffffffffffffffffffffffff16021790555050565b6000813590506100a18161011d565b92915050565b6000602082840312156100bd576100bc610118565b5b60006100cb84828501610092565b91505092915050565b60006100df826100f8565b9050919050565b60006100f1826100d4565b9050919050565b600073ffffffffffffffffffffffffffffffffffffffff82169050919050565b600080fd5b610126816100e6565b811461013157600080fd5b5056fea2646970667358221220f7b93debd5a9687aa3a37a338157c87ad58bfbd7a0501340a958305598d915a564736f6c63430008070033",
  "devdoc": {
    "kind": "dev",
    "methods": {},
    "version": 1
  },
  "userdoc": {
    "kind": "user",
    "methods": {},
    "version": 1
  },
  "storageLayout": {
    "storage": [
      {
        "astId": 3258,
        "contract": "src/UpgradeInit/NXTPInit.sol:NXTPInit",
        "label": "s",
        "offset": 0,
        "slot": "0",
        "type": "t_struct(AppStorage)2406_storage"
      }
    ],
    "types": {
      "t_address": {
        "encoding": "inplace",
        "label": "address",
        "numberOfBytes": "20"
      },
      "t_contract(ITransactionManager)2389": {
        "encoding": "inplace",
        "label": "contract ITransactionManager",
        "numberOfBytes": "20"
      },
      "t_mapping(t_string_memory_ptr,t_struct(BridgeConfig)2004_storage)": {
        "encoding": "mapping",
        "key": "t_string_memory_ptr",
        "label": "mapping(string => struct IHopBridge.BridgeConfig)",
        "numberOfBytes": "32",
        "value": "t_struct(BridgeConfig)2004_storage"
      },
      "t_string_memory_ptr": {
        "encoding": "bytes",
        "label": "string",
        "numberOfBytes": "32"
      },
      "t_struct(AppStorage)2406_storage": {
        "encoding": "inplace",
        "label": "struct AppStorage",
        "members": [
          {
            "astId": 2398,
            "contract": "src/UpgradeInit/NXTPInit.sol:NXTPInit",
            "label": "nxtpTxManager",
            "offset": 0,
            "slot": "0",
            "type": "t_contract(ITransactionManager)2389"
          },
          {
            "astId": 2403,
            "contract": "src/UpgradeInit/NXTPInit.sol:NXTPInit",
            "label": "hopBridges",
            "offset": 0,
            "slot": "1",
            "type": "t_mapping(t_string_memory_ptr,t_struct(BridgeConfig)2004_storage)"
          },
          {
            "astId": 2405,
            "contract": "src/UpgradeInit/NXTPInit.sol:NXTPInit",
            "label": "hopChainId",
            "offset": 0,
            "slot": "2",
            "type": "t_uint256"
          }
        ],
        "numberOfBytes": "96"
      },
      "t_struct(BridgeConfig)2004_storage": {
        "encoding": "inplace",
        "label": "struct IHopBridge.BridgeConfig",
        "members": [
          {
            "astId": 1999,
            "contract": "src/UpgradeInit/NXTPInit.sol:NXTPInit",
            "label": "token",
            "offset": 0,
            "slot": "0",
            "type": "t_address"
          },
          {
            "astId": 2001,
            "contract": "src/UpgradeInit/NXTPInit.sol:NXTPInit",
            "label": "hToken",
            "offset": 0,
            "slot": "1",
            "type": "t_address"
          },
          {
            "astId": 2003,
            "contract": "src/UpgradeInit/NXTPInit.sol:NXTPInit",
            "label": "bridge",
            "offset": 0,
            "slot": "2",
            "type": "t_address"
          }
        ],
        "numberOfBytes": "96"
      },
      "t_uint256": {
        "encoding": "inplace",
        "label": "uint256",
        "numberOfBytes": "32"
      }
    }
  }
}