{
  "address": "0x1c4aE8f95e794EF68a8f68FbEF0002aa408C6245",
  "abi": [
    {
      "anonymous": false,
      "inputs": [
        {
          "indexed": true,
          "internalType": "address",
          "name": "_assetAddress",
          "type": "address"
        },
        {
          "indexed": false,
          "internalType": "address",
          "name": "_from",
          "type": "address"
        },
        {
          "indexed": false,
          "internalType": "uint256",
          "name": "amount",
          "type": "uint256"
        }
      ],
      "name": "LogWithdraw",
      "type": "event"
    },
    {
      "inputs": [
        {
          "internalType": "address",
          "name": "_assetAddress",
          "type": "address"
        },
        {
          "internalType": "address",
          "name": "_to",
          "type": "address"
        },
        {
          "internalType": "uint256",
          "name": "_amount",
          "type": "uint256"
        }
      ],
      "name": "withdraw",
      "outputs": [],
      "stateMutability": "nonpayable",
      "type": "function"
    }
  ],
  "transactionHash": "0xfa828bab3c90c447835c1456b9c586ae096665d7a5f3ed7c0a08fbb4b760442e",
  "args": [],
  "solcInputHash": "8c6332b6d666e6ad472a29fc695095d4",
  "bytecode": "0x608060405234801561001057600080fd5b50610bb2806100206000396000f3fe608060405234801561001057600080fd5b506004361061002b5760003560e01c8063d9caed1214610030575b600080fd5b61004a60048036038101906100459190610671565b61004c565b005b610054610262565b60008073ffffffffffffffffffffffffffffffffffffffff168373ffffffffffffffffffffffffffffffffffffffff161461008f5782610091565b335b905060008073ffffffffffffffffffffffffffffffffffffffff168573ffffffffffffffffffffffffffffffffffffffff1614156101435760003090508073ffffffffffffffffffffffffffffffffffffffff16318411156100f6576100f56109dc565b5b8273ffffffffffffffffffffffffffffffffffffffff166108fc859081150290604051600060405180830381858888f1935050505015801561013c573d6000803e3d6000fd5b505061020b565b8473ffffffffffffffffffffffffffffffffffffffff166370a08231306040518263ffffffff1660e01b815260040161017c9190610849565b60206040518083038186803b15801561019457600080fd5b505afa1580156101a8573d6000803e3d6000fd5b505050506040513d601f19601f820116820180604052508101906101cc91906106f1565b9050808311156101df576101de6109dc565b5b61020a82848773ffffffffffffffffffffffffffffffffffffffff166102fd9092919063ffffffff16565b5b8173ffffffffffffffffffffffffffffffffffffffff167f9207361cc2a04b9c7a06691df1eb87c6a63957ae88bf01d0d18c81e3d12720998685604051610253929190610864565b60405180910390a25050505050565b61026a610383565b60040160009054906101000a900473ffffffffffffffffffffffffffffffffffffffff1673ffffffffffffffffffffffffffffffffffffffff163373ffffffffffffffffffffffffffffffffffffffff16146102fb576040517f08c379a00000000000000000000000000000000000000000000000000000000081526004016102f2906108af565b60405180910390fd5b565b61037e8363a9059cbb60e01b848460405160240161031c929190610864565b604051602081830303815290604052907bffffffffffffffffffffffffffffffffffffffffffffffffffffffff19166020820180517bffffffffffffffffffffffffffffffffffffffffffffffffffffffff83818316178352505050506103b0565b505050565b6000807fc8fcad8db84d3cc18b4c41d551ea0ee66dd599cde068d998e57d5e09332c131c90508091505090565b6000610412826040518060400160405280602081526020017f5361666545524332303a206c6f772d6c6576656c2063616c6c206661696c65648152508573ffffffffffffffffffffffffffffffffffffffff166104779092919063ffffffff16565b9050600081511115610472578080602001905181019061043291906106c4565b610471576040517f08c379a00000000000000000000000000000000000000000000000000000000081526004016104689061090f565b60405180910390fd5b5b505050565b6060610486848460008561048f565b90509392505050565b6060824710156104d4576040517f08c379a00000000000000000000000000000000000000000000000000000000081526004016104cb906108cf565b60405180910390fd5b6104dd856105a3565b61051c576040517f08c379a0000000000000000000000000000000000000000000000000000000008152600401610513906108ef565b60405180910390fd5b6000808673ffffffffffffffffffffffffffffffffffffffff1685876040516105459190610832565b60006040518083038185875af1925050503d8060008114610582576040519150601f19603f3d011682016040523d82523d6000602084013e610587565b606091505b50915091506105978282866105b6565b92505050949350505050565b600080823b905060008111915050919050565b606083156105c657829050610616565b6000835111156105d95782518084602001fd5b816040517f08c379a000000000000000000000000000000000000000000000000000000000815260040161060d919061088d565b60405180910390fd5b9392505050565b60008135905061062c81610b37565b92915050565b60008151905061064181610b4e565b92915050565b60008135905061065681610b65565b92915050565b60008151905061066b81610b65565b92915050565b60008060006060848603121561068a57610689610a0b565b5b60006106988682870161061d565b93505060206106a98682870161061d565b92505060406106ba86828701610647565b9150509250925092565b6000602082840312156106da576106d9610a0b565b5b60006106e884828501610632565b91505092915050565b60006020828403121561070757610706610a0b565b5b60006107158482850161065c565b91505092915050565b61072781610961565b82525050565b60006107388261092f565b6107428185610945565b93506107528185602086016109a9565b80840191505092915050565b60006107698261093a565b6107738185610950565b93506107838185602086016109a9565b61078c81610a10565b840191505092915050565b60006107a4602283610950565b91506107af82610a21565b604082019050919050565b60006107c7602683610950565b91506107d282610a70565b604082019050919050565b60006107ea601d83610950565b91506107f582610abf565b602082019050919050565b600061080d602a83610950565b915061081882610ae8565b604082019050919050565b61082c8161099f565b82525050565b600061083e828461072d565b915081905092915050565b600060208201905061085e600083018461071e565b92915050565b6000604082019050610879600083018561071e565b6108866020830184610823565b9392505050565b600060208201905081810360008301526108a7818461075e565b905092915050565b600060208201905081810360008301526108c881610797565b9050919050565b600060208201905081810360008301526108e8816107ba565b9050919050565b60006020820190508181036000830152610908816107dd565b9050919050565b6000602082019050818103600083015261092881610800565b9050919050565b600081519050919050565b600081519050919050565b600081905092915050565b600082825260208201905092915050565b600061096c8261097f565b9050919050565b60008115159050919050565b600073ffffffffffffffffffffffffffffffffffffffff82169050919050565b6000819050919050565b60005b838110156109c75780820151818401526020810190506109ac565b838111156109d6576000848401525b50505050565b7f4e487b7100000000000000000000000000000000000000000000000000000000600052600160045260246000fd5b600080fd5b6000601f19601f8301169050919050565b7f4c69624469616d6f6e643a204d75737420626520636f6e7472616374206f776e60008201527f6572000000000000000000000000000000000000000000000000000000000000602082015250565b7f416464726573733a20696e73756666696369656e742062616c616e636520666f60008201527f722063616c6c0000000000000000000000000000000000000000000000000000602082015250565b7f416464726573733a2063616c6c20746f206e6f6e2d636f6e7472616374000000600082015250565b7f5361666545524332303a204552433230206f7065726174696f6e20646964206e60008201527f6f74207375636365656400000000000000000000000000000000000000000000602082015250565b610b4081610961565b8114610b4b57600080fd5b50565b610b5781610973565b8114610b6257600080fd5b50565b610b6e8161099f565b8114610b7957600080fd5b5056fea26469706673582212207cda254dd9e2b24a7be6dd65b122311cf0ce4bbdfe44d98eb9c627c50dbeab4464736f6c63430008070033",
  "devdoc": {
    "kind": "dev",
    "methods": {
      "withdraw(address,address,uint256)": {
        "details": "Withdraw asset.",
        "params": {
          "_amount": "amount of asset to withdraw.",
          "_assetAddress": "Asset to be withdrawn.",
          "_to": "address to withdraw to."
        }
      }
    },
    "version": 1
  },
  "userdoc": {
    "kind": "user",
    "methods": {},
    "version": 1
  },
  "storageLayout": {
    "storage": [],
    "types": null
  }
}