{
  "address": "0xEAb38304A91185cfCD26b5D7c3028DFc928ce64b",
  "abi": [
    {
      "anonymous": false,
      "inputs": [
        {
          "indexed": true,
          "internalType": "string",
          "name": "transactionId",
          "type": "string"
        },
        {
          "indexed": false,
          "internalType": "string",
          "name": "integrator",
          "type": "string"
        },
        {
          "indexed": false,
          "internalType": "address",
          "name": "referrer",
          "type": "address"
        },
        {
          "indexed": false,
          "internalType": "address",
          "name": "fromAssetId",
          "type": "address"
        },
        {
          "indexed": false,
          "internalType": "uint256",
          "name": "fromAmount",
          "type": "uint256"
        },
        {
          "indexed": false,
          "internalType": "uint256",
          "name": "timestamp",
          "type": "uint256"
        }
      ],
      "name": "LiFiTransferCompleted",
      "type": "event"
    },
    {
      "anonymous": false,
      "inputs": [
        {
          "indexed": true,
          "internalType": "string",
          "name": "transactionId",
          "type": "string"
        },
        {
          "indexed": false,
          "internalType": "string",
          "name": "integrator",
          "type": "string"
        },
        {
          "indexed": false,
          "internalType": "address",
          "name": "referrer",
          "type": "address"
        },
        {
          "indexed": false,
          "internalType": "address",
          "name": "fromAssetId",
          "type": "address"
        },
        {
          "indexed": false,
          "internalType": "uint256",
          "name": "fromAmount",
          "type": "uint256"
        },
        {
          "indexed": false,
          "internalType": "uint256",
          "name": "timestamp",
          "type": "uint256"
        }
      ],
      "name": "LiFiTransferStarted",
      "type": "event"
    },
    {
      "inputs": [
        {
          "components": [
            {
              "internalType": "string",
              "name": "transactionId",
              "type": "string"
            },
            {
              "internalType": "string",
              "name": "integrator",
              "type": "string"
            },
            {
              "internalType": "address",
              "name": "referrer",
              "type": "address"
            },
            {
              "internalType": "address",
              "name": "fromAssetId",
              "type": "address"
            },
            {
              "internalType": "uint256",
              "name": "fromAmount",
              "type": "uint256"
            },
            {
              "internalType": "uint256",
              "name": "timestamp",
              "type": "uint256"
            }
          ],
          "internalType": "struct ILiFi.LiFiData",
          "name": "_lifiData",
          "type": "tuple"
        }
      ],
      "name": "startBridgeTokensViaHop",
      "outputs": [],
      "stateMutability": "payable",
      "type": "function"
    },
    {
      "inputs": [
        {
          "components": [
            {
              "internalType": "string",
              "name": "transactionId",
              "type": "string"
            },
            {
              "internalType": "string",
              "name": "integrator",
              "type": "string"
            },
            {
              "internalType": "address",
              "name": "referrer",
              "type": "address"
            },
            {
              "internalType": "address",
              "name": "fromAssetId",
              "type": "address"
            },
            {
              "internalType": "uint256",
              "name": "fromAmount",
              "type": "uint256"
            },
            {
              "internalType": "uint256",
              "name": "timestamp",
              "type": "uint256"
            }
          ],
          "internalType": "struct ILiFi.LiFiData",
          "name": "_lifiData",
          "type": "tuple"
        },
        {
          "components": [
            {
              "internalType": "address",
              "name": "callTo",
              "type": "address"
            },
            {
              "internalType": "address",
              "name": "fromAssetId",
              "type": "address"
            },
            {
              "internalType": "address",
              "name": "toAssetId",
              "type": "address"
            },
            {
              "internalType": "bytes",
              "name": "callData",
              "type": "bytes"
            }
          ],
          "internalType": "struct LibLiFi.SwapData[]",
          "name": "_swapData",
          "type": "tuple[]"
        }
      ],
      "name": "swapAndStartBridgeTokensViaHop",
      "outputs": [],
      "stateMutability": "payable",
      "type": "function"
    }
  ],
  "transactionHash": "0x5ead0b5a8a7710889ea73e79e2e41a66164f812a457480b0433090c0d1908d66",
  "args": [],
  "solcInputHash": "9a8095dcaf909659bbc23a6408ff302a",
  "bytecode": "0x608060405234801561001057600080fd5b506117a4806100206000396000f3fe6080604052600436106100295760003560e01c806319da9f731461002e5780632a510bac1461004a575b600080fd5b61004860048036038101906100439190610db0565b610066565b005b610064600480360381019061005f9190610df9565b6100d6565b005b8060000151604051610078919061105f565b60405180910390207f1cc020d29788bb639e4d5184d2ae6152f6af036479333d7088b6c596e8a39db582602001518360400151846060015185608001518660a001516040516100cb959493929190611181565b60405180910390a250565b6000836080015190506000805b848490508160ff1610156101cb5761013385858360ff1681811061010a57610109611544565b5b905060200281019061011c91906112de565b604001602081019061012e9190610d56565b610240565b91506101668386868460ff1681811061014f5761014e611544565b5b905060200281019061016191906112de565b6102e6565b816101a986868460ff168181106101805761017f611544565b5b905060200281019061019291906112de565b60400160208101906101a49190610d56565b610240565b6101b391906113ef565b915081925080806101c3906114eb565b9150506100e3565b5084600001516040516101de919061105f565b60405180910390207f1cc020d29788bb639e4d5184d2ae6152f6af036479333d7088b6c596e8a39db586602001518760400151886060015189608001518a60a00151604051610231959493929190611181565b60405180910390a25050505050565b600061024b826104db565b6102dd578173ffffffffffffffffffffffffffffffffffffffff166370a08231306040518263ffffffff1660e01b81526004016102889190611076565b60206040518083038186803b1580156102a057600080fd5b505afa1580156102b4573d6000803e3d6000fd5b505050506040513d601f19601f820116820180604052508101906102d89190610e75565b6102df565b475b9050919050565b60006103038260400160208101906102fe9190610d56565b610240565b9050600082602001602081019061031a9190610d56565b9050610325816104db565b15801561033a57508361033782610240565b14155b1561035e5761035d8360200160208101906103559190610d56565b333087610513565b5b61037b818460000160208101906103759190610d56565b86610525565b60008360000160208101906103909190610d56565b73ffffffffffffffffffffffffffffffffffffffff16348580606001906103b7919061127b565b6040516103c592919061102f565b60006040518083038185875af1925050503d8060008114610402576040519150601f19603f3d011682016040523d82523d6000602084013e610407565b606091505b505090508061044b576040517f08c379a0000000000000000000000000000000000000000000000000000000008152600401610442906111fb565b60405180910390fd5b826104678560400160208101906104629190610d56565b610240565b61047191906113ef565b92507f4ac5df40d910feab74f02c4430568f99e711257906dd0df11643df22f2ee3cf68460200160208101906104a79190610d56565b8560400160208101906104ba9190610d56565b87866040516104cc94939291906110f1565b60405180910390a15050505050565b60008073ffffffffffffffffffffffffffffffffffffffff168273ffffffffffffffffffffffffffffffffffffffff16149050919050565b61051f848484846105ef565b50505050565b61052e836104db565b15610538576105ea565b60008373ffffffffffffffffffffffffffffffffffffffff1663dd62ed3e30856040518363ffffffff1660e01b8152600401610575929190611091565b60206040518083038186803b15801561058d57600080fd5b505afa1580156105a1573d6000803e3d6000fd5b505050506040513d601f19601f820116820180604052508101906105c59190610e75565b905060008111156105dd576105dc84846000610678565b5b6105e88484846107d6565b505b505050565b610672846323b872dd60e01b858585604051602401610610939291906110ba565b604051602081830303815290604052907bffffffffffffffffffffffffffffffffffffffffffffffffffffffff19166020820180517bffffffffffffffffffffffffffffffffffffffffffffffffffffffff83818316178352505050506108f7565b50505050565b6000811480610711575060008373ffffffffffffffffffffffffffffffffffffffff1663dd62ed3e30856040518363ffffffff1660e01b81526004016106bf929190611091565b60206040518083038186803b1580156106d757600080fd5b505afa1580156106eb573d6000803e3d6000fd5b505050506040513d601f19601f8201168201806040525081019061070f9190610e75565b145b610750576040517f08c379a00000000000000000000000000000000000000000000000000000000081526004016107479061125b565b60405180910390fd5b6107d18363095ea7b360e01b848460405160240161076f929190611136565b604051602081830303815290604052907bffffffffffffffffffffffffffffffffffffffffffffffffffffffff19166020820180517bffffffffffffffffffffffffffffffffffffffffffffffffffffffff83818316178352505050506108f7565b505050565b6000818473ffffffffffffffffffffffffffffffffffffffff1663dd62ed3e30866040518363ffffffff1660e01b8152600401610814929190611091565b60206040518083038186803b15801561082c57600080fd5b505afa158015610840573d6000803e3d6000fd5b505050506040513d601f19601f820116820180604052508101906108649190610e75565b61086e9190611399565b90506108f18463095ea7b360e01b858460405160240161088f929190611136565b604051602081830303815290604052907bffffffffffffffffffffffffffffffffffffffffffffffffffffffff19166020820180517bffffffffffffffffffffffffffffffffffffffffffffffffffffffff83818316178352505050506108f7565b50505050565b6000610959826040518060400160405280602081526020017f5361666545524332303a206c6f772d6c6576656c2063616c6c206661696c65648152508573ffffffffffffffffffffffffffffffffffffffff166109be9092919063ffffffff16565b90506000815111156109b957808060200190518101906109799190610d83565b6109b8576040517f08c379a00000000000000000000000000000000000000000000000000000000081526004016109af9061123b565b60405180910390fd5b5b505050565b60606109cd84846000856109d6565b90509392505050565b606082471015610a1b576040517f08c379a0000000000000000000000000000000000000000000000000000000008152600401610a12906111db565b60405180910390fd5b610a2485610aea565b610a63576040517f08c379a0000000000000000000000000000000000000000000000000000000008152600401610a5a9061121b565b60405180910390fd5b6000808673ffffffffffffffffffffffffffffffffffffffff168587604051610a8c9190611048565b60006040518083038185875af1925050503d8060008114610ac9576040519150601f19603f3d011682016040523d82523d6000602084013e610ace565b606091505b5091509150610ade828286610afd565b92505050949350505050565b600080823b905060008111915050919050565b60608315610b0d57829050610b5d565b600083511115610b205782518084602001fd5b816040517f08c379a0000000000000000000000000000000000000000000000000000000008152600401610b54919061115f565b60405180910390fd5b9392505050565b6000610b77610b728461132b565b611306565b905082815260208101848484011115610b9357610b926115ca565b5b610b9e848285611478565b509392505050565b600081359050610bb581611729565b92915050565b60008083601f840112610bd157610bd06115a7565b5b8235905067ffffffffffffffff811115610bee57610bed6115a2565b5b602083019150836020820283011115610c0a57610c096115c0565b5b9250929050565b600081519050610c2081611740565b92915050565b600082601f830112610c3b57610c3a6115a7565b5b8135610c4b848260208601610b64565b91505092915050565b600060c08284031215610c6a57610c696115b1565b5b610c7460c0611306565b9050600082013567ffffffffffffffff811115610c9457610c936115bb565b5b610ca084828501610c26565b600083015250602082013567ffffffffffffffff811115610cc457610cc36115bb565b5b610cd084828501610c26565b6020830152506040610ce484828501610ba6565b6040830152506060610cf884828501610ba6565b6060830152506080610d0c84828501610d2c565b60808301525060a0610d2084828501610d2c565b60a08301525092915050565b600081359050610d3b81611757565b92915050565b600081519050610d5081611757565b92915050565b600060208284031215610d6c57610d6b6115d4565b5b6000610d7a84828501610ba6565b91505092915050565b600060208284031215610d9957610d986115d4565b5b6000610da784828501610c11565b91505092915050565b600060208284031215610dc657610dc56115d4565b5b600082013567ffffffffffffffff811115610de457610de36115cf565b5b610df084828501610c54565b91505092915050565b600080600060408486031215610e1257610e116115d4565b5b600084013567ffffffffffffffff811115610e3057610e2f6115cf565b5b610e3c86828701610c54565b935050602084013567ffffffffffffffff811115610e5d57610e5c6115cf565b5b610e6986828701610bbb565b92509250509250925092565b600060208284031215610e8b57610e8a6115d4565b5b6000610e9984828501610d41565b91505092915050565b610eab81611423565b82525050565b6000610ebd8385611372565b9350610eca838584611478565b82840190509392505050565b6000610ee18261135c565b610eeb8185611372565b9350610efb818560208601611487565b80840191505092915050565b6000610f1282611367565b610f1c818561137d565b9350610f2c818560208601611487565b610f35816115d9565b840191505092915050565b6000610f4b82611367565b610f55818561138e565b9350610f65818560208601611487565b80840191505092915050565b6000610f7e60268361137d565b9150610f89826115ea565b604082019050919050565b6000610fa160138361137d565b9150610fac82611639565b602082019050919050565b6000610fc4601d8361137d565b9150610fcf82611662565b602082019050919050565b6000610fe7602a8361137d565b9150610ff28261168b565b604082019050919050565b600061100a60368361137d565b9150611015826116da565b604082019050919050565b61102981611461565b82525050565b600061103c828486610eb1565b91508190509392505050565b60006110548284610ed6565b915081905092915050565b600061106b8284610f40565b915081905092915050565b600060208201905061108b6000830184610ea2565b92915050565b60006040820190506110a66000830185610ea2565b6110b36020830184610ea2565b9392505050565b60006060820190506110cf6000830186610ea2565b6110dc6020830185610ea2565b6110e96040830184611020565b949350505050565b60006080820190506111066000830187610ea2565b6111136020830186610ea2565b6111206040830185611020565b61112d6060830184611020565b95945050505050565b600060408201905061114b6000830185610ea2565b6111586020830184611020565b9392505050565b600060208201905081810360008301526111798184610f07565b905092915050565b600060a082019050818103600083015261119b8188610f07565b90506111aa6020830187610ea2565b6111b76040830186610ea2565b6111c46060830185611020565b6111d16080830184611020565b9695505050505050565b600060208201905081810360008301526111f481610f71565b9050919050565b6000602082019050818103600083015261121481610f94565b9050919050565b6000602082019050818103600083015261123481610fb7565b9050919050565b6000602082019050818103600083015261125481610fda565b9050919050565b6000602082019050818103600083015261127481610ffd565b9050919050565b60008083356001602003843603038112611298576112976115b6565b5b80840192508235915067ffffffffffffffff8211156112ba576112b96115ac565b5b6020830192506001820236038313156112d6576112d56115c5565b5b509250929050565b6000823560016080038336030381126112fa576112f96115b6565b5b80830191505092915050565b6000611310611321565b905061131c82826114ba565b919050565b6000604051905090565b600067ffffffffffffffff82111561134657611345611573565b5b61134f826115d9565b9050602081019050919050565b600081519050919050565b600081519050919050565b600081905092915050565b600082825260208201905092915050565b600081905092915050565b60006113a482611461565b91506113af83611461565b9250827fffffffffffffffffffffffffffffffffffffffffffffffffffffffffffffffff038211156113e4576113e3611515565b5b828201905092915050565b60006113fa82611461565b915061140583611461565b92508282101561141857611417611515565b5b828203905092915050565b600061142e82611441565b9050919050565b60008115159050919050565b600073ffffffffffffffffffffffffffffffffffffffff82169050919050565b6000819050919050565b600060ff82169050919050565b82818337600083830152505050565b60005b838110156114a557808201518184015260208101905061148a565b838111156114b4576000848401525b50505050565b6114c3826115d9565b810181811067ffffffffffffffff821117156114e2576114e1611573565b5b80604052505050565b60006114f68261146b565b915060ff82141561150a57611509611515565b5b600182019050919050565b7f4e487b7100000000000000000000000000000000000000000000000000000000600052601160045260246000fd5b7f4e487b7100000000000000000000000000000000000000000000000000000000600052603260045260246000fd5b7f4e487b7100000000000000000000000000000000000000000000000000000000600052604160045260246000fd5b600080fd5b600080fd5b600080fd5b600080fd5b600080fd5b600080fd5b600080fd5b600080fd5b600080fd5b600080fd5b600080fd5b6000601f19601f8301169050919050565b7f416464726573733a20696e73756666696369656e742062616c616e636520666f60008201527f722063616c6c0000000000000000000000000000000000000000000000000000602082015250565b7f4552525f4445585f535741505f4641494c454400000000000000000000000000600082015250565b7f416464726573733a2063616c6c20746f206e6f6e2d636f6e7472616374000000600082015250565b7f5361666545524332303a204552433230206f7065726174696f6e20646964206e60008201527f6f74207375636365656400000000000000000000000000000000000000000000602082015250565b7f5361666545524332303a20617070726f76652066726f6d206e6f6e2d7a65726f60008201527f20746f206e6f6e2d7a65726f20616c6c6f77616e636500000000000000000000602082015250565b61173281611423565b811461173d57600080fd5b50565b61174981611435565b811461175457600080fd5b50565b61176081611461565b811461176b57600080fd5b5056fea26469706673582212203f65cfe380172c8a575a74b12407b5e1e538962e77969ae4d394059eb845c4c064736f6c63430008070033",
  "devdoc": {
    "kind": "dev",
    "methods": {},
    "version": 1
  },
  "userdoc": {
    "kind": "user",
    "methods": {},
    "version": 1
  },
  "storageLayout": {
    "storage": [],
    "types": null
  }
}